{
  "_format": "hh-sol-artifact-1",
  "contractName": "Factory",
  "sourceName": "contracts/Factory.sol",
  "abi": [
    {
      "anonymous": false,
      "inputs": [
        {
          "indexed": false,
          "internalType": "address",
          "name": "previousAdmin",
          "type": "address"
        },
        {
          "indexed": false,
          "internalType": "address",
          "name": "newAdmin",
          "type": "address"
        }
      ],
      "name": "AdminChanged",
      "type": "event"
    },
    {
      "anonymous": false,
      "inputs": [
        {
          "indexed": true,
          "internalType": "address",
          "name": "beacon",
          "type": "address"
        }
      ],
      "name": "BeaconUpgraded",
      "type": "event"
    },
    {
      "anonymous": false,
      "inputs": [
        {
          "indexed": false,
          "internalType": "uint8",
          "name": "version",
          "type": "uint8"
        }
      ],
      "name": "Initialized",
      "type": "event"
    },
    {
      "anonymous": false,
      "inputs": [
        {
          "indexed": true,
          "internalType": "address",
          "name": "previousOwner",
          "type": "address"
        },
        {
          "indexed": true,
          "internalType": "address",
          "name": "newOwner",
          "type": "address"
        }
      ],
      "name": "OwnershipTransferred",
      "type": "event"
    },
    {
      "anonymous": false,
      "inputs": [
        {
          "indexed": true,
          "internalType": "address",
          "name": "implementation",
          "type": "address"
        }
      ],
      "name": "Upgraded",
      "type": "event"
    },
    {
      "inputs": [
        {
          "internalType": "address",
          "name": "_ad",
          "type": "address"
        }
      ],
      "name": "addValidators",
      "outputs": [],
      "stateMutability": "nonpayable",
      "type": "function"
    },
    {
      "inputs": [
        {
          "internalType": "address",
          "name": "_ad",
          "type": "address"
        }
      ],
      "name": "checkValidatorIsRegistered",
      "outputs": [
        {
          "internalType": "bool",
          "name": "condition",
          "type": "bool"
        }
      ],
      "stateMutability": "view",
      "type": "function"
    },
    {
      "inputs": [],
      "name": "owner",
      "outputs": [
        {
          "internalType": "address",
          "name": "",
          "type": "address"
        }
      ],
      "stateMutability": "view",
      "type": "function"
    },
    {
      "inputs": [],
      "name": "proxiableUUID",
      "outputs": [
        {
          "internalType": "bytes32",
          "name": "",
          "type": "bytes32"
        }
      ],
      "stateMutability": "view",
      "type": "function"
    },
    {
      "inputs": [],
      "name": "renounceOwnership",
      "outputs": [],
      "stateMutability": "nonpayable",
      "type": "function"
    },
    {
      "inputs": [],
      "name": "returnArray",
      "outputs": [
        {
          "internalType": "address[]",
          "name": "",
          "type": "address[]"
        }
      ],
      "stateMutability": "view",
      "type": "function"
    },
    {
      "inputs": [
        {
          "internalType": "address",
          "name": "newOwner",
          "type": "address"
        }
      ],
      "name": "transferOwnership",
      "outputs": [],
      "stateMutability": "nonpayable",
      "type": "function"
    },
    {
      "inputs": [
        {
          "internalType": "address",
          "name": "newImplementation",
          "type": "address"
        }
      ],
      "name": "upgradeTo",
      "outputs": [],
      "stateMutability": "nonpayable",
      "type": "function"
    },
    {
      "inputs": [
        {
          "internalType": "address",
          "name": "newImplementation",
          "type": "address"
        },
        {
          "internalType": "bytes",
          "name": "data",
          "type": "bytes"
        }
      ],
      "name": "upgradeToAndCall",
      "outputs": [],
      "stateMutability": "payable",
      "type": "function"
    }
  ],
  "bytecode": "0x60a06040523060805234801561001457600080fd5b50608051610d8f61004c600039600081816101c60152818161020f015281816103110152818161035101526103e40152610d8f6000f3fe6080604052600436106100865760003560e01c80635e22b80a116100595780635e22b80a1461010e578063715018a61461013e5780638da5cb5b14610153578063efb0b6551461017b578063f2fde38b1461019b57600080fd5b80633659cfe61461008b5780633cac14c8146100ad5780634f1ef286146100d857806352d1902d146100eb575b600080fd5b34801561009757600080fd5b506100ab6100a6366004610aa6565b6101bb565b005b3480156100b957600080fd5b506100c26102a4565b6040516100cf9190610ac1565b60405180910390f35b6100ab6100e6366004610b24565b610306565b3480156100f757600080fd5b506101006103d7565b6040519081526020016100cf565b34801561011a57600080fd5b5061012e610129366004610aa6565b61048a565b60405190151581526020016100cf565b34801561014a57600080fd5b506100ab6104c5565b34801561015f57600080fd5b506097546040516001600160a01b0390911681526020016100cf565b34801561018757600080fd5b506100ab610196366004610aa6565b6104d9565b3480156101a757600080fd5b506100ab6101b6366004610aa6565b6105ab565b306001600160a01b037f000000000000000000000000000000000000000000000000000000000000000016141561020d5760405162461bcd60e51b815260040161020490610be6565b60405180910390fd5b7f00000000000000000000000000000000000000000000000000000000000000006001600160a01b0316610256600080516020610d13833981519152546001600160a01b031690565b6001600160a01b03161461027c5760405162461bcd60e51b815260040161020490610c32565b61028581610621565b604080516000808252602082019092526102a191839190610629565b50565b606060c98054806020026020016040519081016040528092919081815260200182805480156102fc57602002820191906000526020600020905b81546001600160a01b031681526001909101906020018083116102de575b5050505050905090565b306001600160a01b037f000000000000000000000000000000000000000000000000000000000000000016141561034f5760405162461bcd60e51b815260040161020490610be6565b7f00000000000000000000000000000000000000000000000000000000000000006001600160a01b0316610398600080516020610d13833981519152546001600160a01b031690565b6001600160a01b0316146103be5760405162461bcd60e51b815260040161020490610c32565b6103c782610621565b6103d382826001610629565b5050565b6000306001600160a01b037f000000000000000000000000000000000000000000000000000000000000000016146104775760405162461bcd60e51b815260206004820152603860248201527f555550535570677261646561626c653a206d757374206e6f742062652063616c60448201527f6c6564207468726f7567682064656c656761746563616c6c00000000000000006064820152608401610204565b50600080516020610d1383398151915290565b6001600160a01b038116600090815260ca602052604081205460ff161515600114156104b857506001919050565b506000919050565b919050565b6104cd6107a8565b6104d76000610802565b565b336001600160a01b038216146105445760405162461bcd60e51b815260206004820152602a60248201527f706c6561736520757365207468652061646472657373206f6620636f6e6e65636044820152691d1959081dd85b1b195d60b21b6064820152608401610204565b60c9805460018181019092557f66be4f155c5ef2ebd3772b228f2f00681e4ed5826cdb3b1943cc11ad15ad1d280180546001600160a01b039093166001600160a01b031990931683179055600091825260ca6020526040909120805460ff19169091179055565b6105b36107a8565b6001600160a01b0381166106185760405162461bcd60e51b815260206004820152602660248201527f4f776e61626c653a206e6577206f776e657220697320746865207a65726f206160448201526564647265737360d01b6064820152608401610204565b6102a181610802565b6102a16107a8565b7f4910fdfa16fed3260ed0e7147f7cc6da11a60208b5b9406d12a635614ffd91435460ff16156106615761065c83610854565b505050565b826001600160a01b03166352d1902d6040518163ffffffff1660e01b815260040160206040518083038186803b15801561069a57600080fd5b505afa9250505080156106ca575060408051601f3d908101601f191682019092526106c791810190610c7e565b60015b61072d5760405162461bcd60e51b815260206004820152602e60248201527f45524331393637557067726164653a206e657720696d706c656d656e7461746960448201526d6f6e206973206e6f74205555505360901b6064820152608401610204565b600080516020610d13833981519152811461079c5760405162461bcd60e51b815260206004820152602960248201527f45524331393637557067726164653a20756e737570706f727465642070726f786044820152681a58589b195555525160ba1b6064820152608401610204565b5061065c8383836108f0565b6097546001600160a01b031633146104d75760405162461bcd60e51b815260206004820181905260248201527f4f776e61626c653a2063616c6c6572206973206e6f7420746865206f776e65726044820152606401610204565b609780546001600160a01b038381166001600160a01b0319831681179093556040519116919082907f8be0079c531659141344cd1fd0a4f28419497f9722a3daafe3b4186f6b6457e090600090a35050565b6001600160a01b0381163b6108c15760405162461bcd60e51b815260206004820152602d60248201527f455243313936373a206e657720696d706c656d656e746174696f6e206973206e60448201526c1bdd08184818dbdb9d1c9858dd609a1b6064820152608401610204565b600080516020610d1383398151915280546001600160a01b0319166001600160a01b0392909216919091179055565b6108f98361091b565b6000825111806109065750805b1561065c57610915838361095b565b50505050565b61092481610854565b6040516001600160a01b038216907fbc7cd75a20ee27fd9adebab32041f755214dbc6bffa90cc0225b39da2e5c2d3b90600090a250565b60606001600160a01b0383163b6109c35760405162461bcd60e51b815260206004820152602660248201527f416464726573733a2064656c65676174652063616c6c20746f206e6f6e2d636f6044820152651b9d1c9858dd60d21b6064820152608401610204565b600080846001600160a01b0316846040516109de9190610cc3565b600060405180830381855af49150503d8060008114610a19576040519150601f19603f3d011682016040523d82523d6000602084013e610a1e565b606091505b5091509150610a468282604051806060016040528060278152602001610d3360279139610a4f565b95945050505050565b60608315610a5e575081610a88565b825115610a6e5782518084602001fd5b8160405162461bcd60e51b81526004016102049190610cdf565b9392505050565b80356001600160a01b03811681146104c057600080fd5b600060208284031215610ab857600080fd5b610a8882610a8f565b6020808252825182820181905260009190848201906040850190845b81811015610b025783516001600160a01b031683529284019291840191600101610add565b50909695505050505050565b634e487b7160e01b600052604160045260246000fd5b60008060408385031215610b3757600080fd5b610b4083610a8f565b9150602083013567ffffffffffffffff80821115610b5d57600080fd5b818501915085601f830112610b7157600080fd5b813581811115610b8357610b83610b0e565b604051601f8201601f19908116603f01168101908382118183101715610bab57610bab610b0e565b81604052828152886020848701011115610bc457600080fd5b8260208601602083013760006020848301015280955050505050509250929050565b6020808252602c908201527f46756e6374696f6e206d7573742062652063616c6c6564207468726f7567682060408201526b19195b1959d85d1958d85b1b60a21b606082015260800190565b6020808252602c908201527f46756e6374696f6e206d7573742062652063616c6c6564207468726f7567682060408201526b6163746976652070726f787960a01b606082015260800190565b600060208284031215610c9057600080fd5b5051919050565b60005b83811015610cb2578181015183820152602001610c9a565b838111156109155750506000910152565b60008251610cd5818460208701610c97565b9190910192915050565b6020815260008251806020840152610cfe816040850160208701610c97565b601f01601f1916919091016040019291505056fe360894a13ba1a3210667c828492db98dca3e2076cc3735a920a3ca505d382bbc416464726573733a206c6f772d6c6576656c2064656c65676174652063616c6c206661696c6564a264697066735822122029c427abce79520bde88fdb042e28c4ddcff760e0707607ce8f3b35361550c6264736f6c63430008090033",
  "linkReferences": {},
  "deployedLinkReferences": {}
}