{
  "_format": "hh-sol-artifact-1",
  "contractName": "FundLock",
  "sourceName": "contracts/PrivateRound.sol",
  "abi": [
    {
      "inputs": [
        {
          "internalType": "address",
          "name": "investor",
          "type": "address"
        },
        {
          "internalType": "uint256",
          "name": "roundId",
          "type": "uint256"
        },
        {
          "internalType": "uint256",
          "name": "amount",
          "type": "uint256"
        },
        {
          "internalType": "address",
          "name": "privateRoundContractAd",
          "type": "address"
        }
      ],
      "stateMutability": "nonpayable",
      "type": "constructor"
    },
    {
      "inputs": [
        {
          "internalType": "uint256",
          "name": "",
          "type": "uint256"
        },
        {
          "internalType": "address",
          "name": "",
          "type": "address"
        }
      ],
      "name": "_amount",
      "outputs": [
        {
          "internalType": "uint256",
          "name": "",
          "type": "uint256"
        }
      ],
      "stateMutability": "view",
      "type": "function"
    },
    {
      "inputs": [],
      "name": "_contractOwner",
      "outputs": [
        {
          "internalType": "address",
          "name": "",
          "type": "address"
        }
      ],
      "stateMutability": "view",
      "type": "function"
    }
  ],
  "bytecode": "0x608060405234801561001057600080fd5b5060405161032238038061032283398101604081905261002f9161017e565b600080546001600160a01b031916331781558381526001602090815260408083206001600160a01b038881168552908352928190208590558051632ad1b9eb60e11b81529051928416926355a373d692600480840193919291829003018186803b15801561009c57600080fd5b505afa1580156100b0573d6000803e3d6000fd5b505050506040513d601f19601f820116820180604052508101906100d491906101c4565b60405163095ea7b360e01b81526001600160a01b03838116600483015260248201859052919091169063095ea7b390604401602060405180830381600087803b15801561012057600080fd5b505af1158015610134573d6000803e3d6000fd5b505050506040513d601f19601f8201168201806040525081019061015891906101e6565b5050505050610208565b80516001600160a01b038116811461017957600080fd5b919050565b6000806000806080858703121561019457600080fd5b61019d85610162565b935060208501519250604085015191506101b960608601610162565b905092959194509250565b6000602082840312156101d657600080fd5b6101df82610162565b9392505050565b6000602082840312156101f857600080fd5b815180151581146101df57600080fd5b61010b806102176000396000f3fe6080604052348015600f57600080fd5b506004361060325760003560e01c80632bb3b114146037578063a7b5d614146066575b600080fd5b6000546049906001600160a01b031681565b6040516001600160a01b0390911681526020015b60405180910390f35b608e6071366004609b565b600160209081526000928352604080842090915290825290205481565b604051908152602001605d565b6000806040838503121560ad57600080fd5b8235915060208301356001600160a01b038116811460ca57600080fd5b80915050925092905056fea26469706673582212207b87cdc8434be56fefd328d39b12bb3c1feddd38fe96f0a298a243e6d57e817d64736f6c63430008090033",
  "linkReferences": {},
  "deployedLinkReferences": {}
}