{
  "_format": "hh-sol-artifact-1",
  "contractName": "InvestorLogin",
  "sourceName": "contracts/PrivateRound.sol",
  "abi": [
    {
      "inputs": [
        {
          "internalType": "address",
          "name": "_ad",
          "type": "address"
        }
      ],
      "name": "addInvestor",
      "outputs": [],
      "stateMutability": "nonpayable",
      "type": "function"
    },
    {
      "inputs": [],
      "name": "getAllInvestorAddress",
      "outputs": [
        {
          "internalType": "address[]",
          "name": "",
          "type": "address[]"
        }
      ],
      "stateMutability": "view",
      "type": "function"
    },
    {
      "inputs": [
        {
          "internalType": "address",
          "name": "_ad",
          "type": "address"
        }
      ],
      "name": "verifyInvestor",
      "outputs": [
        {
          "internalType": "bool",
          "name": "condition",
          "type": "bool"
        }
      ],
      "stateMutability": "view",
      "type": "function"
    }
  ],
  "bytecode": "0x608060405234801561001057600080fd5b506102b9806100206000396000f3fe608060405234801561001057600080fd5b50600436106100415760003560e01c8063d84dbdc314610046578063e641bde11461006e578063f4630c8614610083575b600080fd5b610059610054366004610206565b610098565b60405190151581526020015b60405180910390f35b61008161007c366004610206565b6100ce565b005b61008b6101a4565b6040516100659190610236565b6001600160a01b03811660009081526020819052604081205460ff161515600114156100c657506001919050565b506000919050565b336001600160a01b038216146101415760405162461bcd60e51b815260206004820152602e60248201527f436f6e6e6563742073616d652077616c6c657420746f206164642027496e766560448201526d039ba37b91030b2323932b9b993960951b606482015260840160405180910390fd5b6001600160a01b03166000818152602081905260408120805460ff191660019081179091558054808201825591527fb10e2d527612073b26eecdfd717e6a320cf44b4afac2b0732d9fcbe2b7fa0cf60180546001600160a01b0319169091179055565b606060018054806020026020016040519081016040528092919081815260200182805480156101fc57602002820191906000526020600020905b81546001600160a01b031681526001909101906020018083116101de575b5050505050905090565b60006020828403121561021857600080fd5b81356001600160a01b038116811461022f57600080fd5b9392505050565b6020808252825182820181905260009190848201906040850190845b818110156102775783516001600160a01b031683529284019291840191600101610252565b5090969550505050505056fea264697066735822122091b7e9aa3945d255ac3bc1d07bd7488c1d5802b1f8b4b0c46b642d9ccd9a060464736f6c63430008090033",
  "linkReferences": {},
  "deployedLinkReferences": {}
}