{
  "_format": "hh-sol-artifact-1",
  "contractName": "PrivateRound",
  "sourceName": "contracts/PrivateRound.sol",
  "abi": [
    {
      "anonymous": false,
      "inputs": [
        {
          "indexed": false,
          "internalType": "address",
          "name": "previousAdmin",
          "type": "address"
        },
        {
          "indexed": false,
          "internalType": "address",
          "name": "newAdmin",
          "type": "address"
        }
      ],
      "name": "AdminChanged",
      "type": "event"
    },
    {
      "anonymous": false,
      "inputs": [
        {
          "indexed": true,
          "internalType": "address",
          "name": "beacon",
          "type": "address"
        }
      ],
      "name": "BeaconUpgraded",
      "type": "event"
    },
    {
      "anonymous": false,
      "inputs": [
        {
          "indexed": false,
          "internalType": "uint8",
          "name": "version",
          "type": "uint8"
        }
      ],
      "name": "Initialized",
      "type": "event"
    },
    {
      "anonymous": false,
      "inputs": [
        {
          "indexed": true,
          "internalType": "address",
          "name": "previousOwner",
          "type": "address"
        },
        {
          "indexed": true,
          "internalType": "address",
          "name": "newOwner",
          "type": "address"
        }
      ],
      "name": "OwnershipTransferred",
      "type": "event"
    },
    {
      "anonymous": false,
      "inputs": [
        {
          "indexed": true,
          "internalType": "address",
          "name": "implementation",
          "type": "address"
        }
      ],
      "name": "Upgraded",
      "type": "event"
    },
    {
      "inputs": [
        {
          "internalType": "address",
          "name": "_tokenContract",
          "type": "address"
        }
      ],
      "name": "availableTaxTokens",
      "outputs": [
        {
          "internalType": "uint256",
          "name": "taxTokens",
          "type": "uint256"
        }
      ],
      "stateMutability": "view",
      "type": "function"
    },
    {
      "inputs": [
        {
          "internalType": "address",
          "name": "_investorSM",
          "type": "address"
        },
        {
          "internalType": "uint256",
          "name": "_roundId",
          "type": "uint256"
        },
        {
          "internalType": "address",
          "name": "_founder",
          "type": "address"
        },
        {
          "internalType": "address",
          "name": "_tokenContract",
          "type": "address"
        }
      ],
      "name": "batchWithdrawByInvestors",
      "outputs": [],
      "stateMutability": "nonpayable",
      "type": "function"
    },
    {
      "inputs": [
        {
          "internalType": "address",
          "name": "_newAdmin",
          "type": "address"
        }
      ],
      "name": "changeAdminAddress",
      "outputs": [],
      "stateMutability": "nonpayable",
      "type": "function"
    },
    {
      "inputs": [],
      "name": "contractOwner",
      "outputs": [
        {
          "internalType": "address",
          "name": "",
          "type": "address"
        }
      ],
      "stateMutability": "view",
      "type": "function"
    },
    {
      "inputs": [
        {
          "internalType": "uint256",
          "name": "_roundId",
          "type": "uint256"
        },
        {
          "internalType": "address",
          "name": "_investorSM",
          "type": "address"
        },
        {
          "internalType": "uint256",
          "name": "_initialPercentage",
          "type": "uint256"
        },
        {
          "components": [
            {
              "internalType": "uint256",
              "name": "_num",
              "type": "uint256"
            },
            {
              "internalType": "uint256",
              "name": "_date",
              "type": "uint256"
            },
            {
              "internalType": "uint256",
              "name": "_percent",
              "type": "uint256"
            }
          ],
          "internalType": "struct PrivateRound.MilestoneSetup[]",
          "name": "_mile",
          "type": "tuple[]"
        }
      ],
      "name": "createPrivateRound",
      "outputs": [],
      "stateMutability": "nonpayable",
      "type": "function"
    },
    {
      "inputs": [
        {
          "internalType": "address",
          "name": "_tokenContract",
          "type": "address"
        },
        {
          "internalType": "address",
          "name": "_investorSM",
          "type": "address"
        },
        {
          "internalType": "address",
          "name": "_founder",
          "type": "address"
        },
        {
          "internalType": "uint256",
          "name": "_tokens",
          "type": "uint256"
        },
        {
          "internalType": "uint256",
          "name": "_roundId",
          "type": "uint256"
        }
      ],
      "name": "depositTokens",
      "outputs": [],
      "stateMutability": "nonpayable",
      "type": "function"
    },
    {
      "inputs": [
        {
          "internalType": "uint256",
          "name": "_roundId",
          "type": "uint256"
        }
      ],
      "name": "getContractAddress",
      "outputs": [
        {
          "internalType": "address",
          "name": "smartContractAddress",
          "type": "address"
        }
      ],
      "stateMutability": "view",
      "type": "function"
    },
    {
      "inputs": [
        {
          "internalType": "uint256",
          "name": "",
          "type": "uint256"
        },
        {
          "internalType": "address",
          "name": "",
          "type": "address"
        }
      ],
      "name": "initialPercentage",
      "outputs": [
        {
          "internalType": "uint256",
          "name": "",
          "type": "uint256"
        }
      ],
      "stateMutability": "view",
      "type": "function"
    },
    {
      "inputs": [
        {
          "internalType": "uint256",
          "name": "",
          "type": "uint256"
        },
        {
          "internalType": "address",
          "name": "",
          "type": "address"
        }
      ],
      "name": "initialTokensForFounder",
      "outputs": [
        {
          "internalType": "uint256",
          "name": "",
          "type": "uint256"
        }
      ],
      "stateMutability": "view",
      "type": "function"
    },
    {
      "inputs": [
        {
          "internalType": "uint256",
          "name": "_roundId",
          "type": "uint256"
        },
        {
          "internalType": "address",
          "name": "_founder",
          "type": "address"
        }
      ],
      "name": "initialWithdrawStatus",
      "outputs": [
        {
          "internalType": "bool",
          "name": "initialWithdraw",
          "type": "bool"
        }
      ],
      "stateMutability": "view",
      "type": "function"
    },
    {
      "inputs": [
        {
          "internalType": "address",
          "name": "_investor",
          "type": "address"
        },
        {
          "internalType": "uint256",
          "name": "_roundId",
          "type": "uint256"
        }
      ],
      "name": "investorWithdrawnToken",
      "outputs": [
        {
          "internalType": "uint256",
          "name": "investorWithdrawnTokenNumber",
          "type": "uint256"
        }
      ],
      "stateMutability": "view",
      "type": "function"
    },
    {
      "inputs": [
        {
          "internalType": "uint256",
          "name": "roundId",
          "type": "uint256"
        },
        {
          "internalType": "uint256",
          "name": "milestoneId",
          "type": "uint256"
        }
      ],
      "name": "milestoneStatusChk",
      "outputs": [
        {
          "internalType": "int256",
          "name": "",
          "type": "int256"
        }
      ],
      "stateMutability": "view",
      "type": "function"
    },
    {
      "inputs": [
        {
          "internalType": "address",
          "name": "_founderSM",
          "type": "address"
        },
        {
          "internalType": "uint256",
          "name": "_milestoneId",
          "type": "uint256"
        },
        {
          "internalType": "uint256",
          "name": "_roundId",
          "type": "uint256"
        }
      ],
      "name": "milestoneValidationRequest",
      "outputs": [],
      "stateMutability": "nonpayable",
      "type": "function"
    },
    {
      "inputs": [
        {
          "internalType": "uint256",
          "name": "_roundId",
          "type": "uint256"
        },
        {
          "internalType": "uint256",
          "name": "_milestoneId",
          "type": "uint256"
        }
      ],
      "name": "milestoneWithdrawStatus",
      "outputs": [
        {
          "internalType": "bool",
          "name": "",
          "type": "bool"
        }
      ],
      "stateMutability": "view",
      "type": "function"
    },
    {
      "inputs": [],
      "name": "owner",
      "outputs": [
        {
          "internalType": "address",
          "name": "",
          "type": "address"
        }
      ],
      "stateMutability": "view",
      "type": "function"
    },
    {
      "inputs": [
        {
          "internalType": "uint256",
          "name": "_roundId",
          "type": "uint256"
        }
      ],
      "name": "projectStatus",
      "outputs": [
        {
          "internalType": "bool",
          "name": "projectLiveOrNot",
          "type": "bool"
        }
      ],
      "stateMutability": "view",
      "type": "function"
    },
    {
      "inputs": [],
      "name": "proxiableUUID",
      "outputs": [
        {
          "internalType": "bytes32",
          "name": "",
          "type": "bytes32"
        }
      ],
      "stateMutability": "view",
      "type": "function"
    },
    {
      "inputs": [
        {
          "internalType": "uint256",
          "name": "_roundId",
          "type": "uint256"
        }
      ],
      "name": "readTaxFee",
      "outputs": [
        {
          "internalType": "uint256",
          "name": "transactionFee",
          "type": "uint256"
        }
      ],
      "stateMutability": "view",
      "type": "function"
    },
    {
      "inputs": [
        {
          "internalType": "uint256",
          "name": "",
          "type": "uint256"
        },
        {
          "internalType": "address",
          "name": "",
          "type": "address"
        }
      ],
      "name": "remainingTokensOfInvestor",
      "outputs": [
        {
          "internalType": "uint256",
          "name": "",
          "type": "uint256"
        }
      ],
      "stateMutability": "view",
      "type": "function"
    },
    {
      "inputs": [],
      "name": "renounceOwnership",
      "outputs": [],
      "stateMutability": "nonpayable",
      "type": "function"
    },
    {
      "inputs": [
        {
          "internalType": "uint256",
          "name": "",
          "type": "uint256"
        },
        {
          "internalType": "address",
          "name": "",
          "type": "address"
        }
      ],
      "name": "seperateContractLink",
      "outputs": [
        {
          "internalType": "address",
          "name": "",
          "type": "address"
        }
      ],
      "stateMutability": "view",
      "type": "function"
    },
    {
      "inputs": [
        {
          "internalType": "address",
          "name": "",
          "type": "address"
        }
      ],
      "name": "taxedTokens",
      "outputs": [
        {
          "internalType": "uint256",
          "name": "",
          "type": "uint256"
        }
      ],
      "stateMutability": "view",
      "type": "function"
    },
    {
      "inputs": [],
      "name": "tokenContract",
      "outputs": [
        {
          "internalType": "address",
          "name": "",
          "type": "address"
        }
      ],
      "stateMutability": "view",
      "type": "function"
    },
    {
      "inputs": [
        {
          "internalType": "uint256",
          "name": "_roundId",
          "type": "uint256"
        },
        {
          "internalType": "address",
          "name": "_founder",
          "type": "address"
        },
        {
          "internalType": "address",
          "name": "_investor",
          "type": "address"
        }
      ],
      "name": "tokenStatus",
      "outputs": [
        {
          "internalType": "uint256",
          "name": "unlockedAmount",
          "type": "uint256"
        },
        {
          "internalType": "uint256",
          "name": "lockedAmount",
          "type": "uint256"
        },
        {
          "internalType": "uint256",
          "name": "withdrawnTokensByFounder",
          "type": "uint256"
        }
      ],
      "stateMutability": "view",
      "type": "function"
    },
    {
      "inputs": [
        {
          "internalType": "uint256",
          "name": "",
          "type": "uint256"
        },
        {
          "internalType": "address",
          "name": "",
          "type": "address"
        }
      ],
      "name": "totalTokensOfInvestor",
      "outputs": [
        {
          "internalType": "uint256",
          "name": "",
          "type": "uint256"
        }
      ],
      "stateMutability": "view",
      "type": "function"
    },
    {
      "inputs": [
        {
          "internalType": "address",
          "name": "newOwner",
          "type": "address"
        }
      ],
      "name": "transferOwnership",
      "outputs": [],
      "stateMutability": "nonpayable",
      "type": "function"
    },
    {
      "inputs": [
        {
          "internalType": "address",
          "name": "newImplementation",
          "type": "address"
        }
      ],
      "name": "upgradeTo",
      "outputs": [],
      "stateMutability": "nonpayable",
      "type": "function"
    },
    {
      "inputs": [
        {
          "internalType": "address",
          "name": "newImplementation",
          "type": "address"
        },
        {
          "internalType": "bytes",
          "name": "data",
          "type": "bytes"
        }
      ],
      "name": "upgradeToAndCall",
      "outputs": [],
      "stateMutability": "payable",
      "type": "function"
    },
    {
      "inputs": [
        {
          "internalType": "address",
          "name": "_investorSM",
          "type": "address"
        },
        {
          "internalType": "uint256",
          "name": "_milestoneId",
          "type": "uint256"
        },
        {
          "internalType": "uint256",
          "name": "_roundId",
          "type": "uint256"
        },
        {
          "internalType": "bool",
          "name": "_status",
          "type": "bool"
        }
      ],
      "name": "validateMilestone",
      "outputs": [],
      "stateMutability": "nonpayable",
      "type": "function"
    },
    {
      "inputs": [
        {
          "internalType": "address",
          "name": "_founderSM",
          "type": "address"
        },
        {
          "internalType": "address",
          "name": "_investor",
          "type": "address"
        },
        {
          "internalType": "uint256",
          "name": "_roundId",
          "type": "uint256"
        },
        {
          "internalType": "uint256",
          "name": "_milestoneId",
          "type": "uint256"
        },
        {
          "internalType": "uint256",
          "name": "_percentage",
          "type": "uint256"
        },
        {
          "internalType": "address",
          "name": "_tokenContract",
          "type": "address"
        }
      ],
      "name": "withdrawIndividualMilestoneByFounder",
      "outputs": [],
      "stateMutability": "nonpayable",
      "type": "function"
    },
    {
      "inputs": [
        {
          "internalType": "address",
          "name": "_investorSM",
          "type": "address"
        },
        {
          "internalType": "uint256",
          "name": "_roundId",
          "type": "uint256"
        },
        {
          "internalType": "address",
          "name": "_founder",
          "type": "address"
        },
        {
          "internalType": "uint256",
          "name": "_milestoneId",
          "type": "uint256"
        },
        {
          "internalType": "uint256",
          "name": "_percentage",
          "type": "uint256"
        },
        {
          "internalType": "address",
          "name": "_tokenContract",
          "type": "address"
        }
      ],
      "name": "withdrawIndividualMilestoneByInvestor",
      "outputs": [],
      "stateMutability": "nonpayable",
      "type": "function"
    },
    {
      "inputs": [
        {
          "internalType": "address",
          "name": "_tokenContract",
          "type": "address"
        },
        {
          "internalType": "address",
          "name": "_founderSM",
          "type": "address"
        },
        {
          "internalType": "uint256",
          "name": "_roundId",
          "type": "uint256"
        }
      ],
      "name": "withdrawInitialPercentage",
      "outputs": [],
      "stateMutability": "nonpayable",
      "type": "function"
    },
    {
      "inputs": [
        {
          "internalType": "address",
          "name": "_tokenContract",
          "type": "address"
        }
      ],
      "name": "withdrawTaxTokens",
      "outputs": [],
      "stateMutability": "nonpayable",
      "type": "function"
    }
  ],
  "bytecode": "0x60a06040523060805234801561001457600080fd5b5060805161399c61004c60003960008181610d8701528181610dca01528181611072015281816110b50152611151015261399c6000f3fe608060405260043610620002165760003560e01c8063657267cb1162000123578063aefa7d9811620000ad578063cbb6796d1162000078578063cbb6796d1462000797578063ce606ee014620007bc578063f2fde38b14620007de578063f370a9a11462000803578063fd9b8dd7146200082857600080fd5b8063aefa7d9814620006c2578063b137127814620006fc578063b531352b1462000721578063c5258cea146200075257600080fd5b806388e4b9a011620000ee57806388e4b9a014620005f7578063894d3e91146200061c5780638da5cb5b14620006585780639791e333146200067857600080fd5b8063657267cb14620005565780636c86376d146200057b578063715018a614620005ba57806373adb51914620005d257600080fd5b8063484ff81811620001a557806352d1902d116200017057806352d1902d146200048657806355a373d6146200049e5780635c4f572814620004d95780635ec39431146200051557600080fd5b8063484ff81814620003c957806349c40ef014620003ee5780634f1ef286146200042a57806350ac5892146200044157600080fd5b80631686c00d11620001e65780631686c00d14620002fc5780631e66005d14620003435780632e6e3e1e14620003685780633659cfe614620003a457600080fd5b8062d912c8146200021b57806304fc87c6146200025f5780631021688f146200029957806313872ec514620002c0575b600080fd5b3480156200022857600080fd5b506200024c6200023a36600462002ced565b600090815260d5602052604090205490565b6040519081526020015b60405180910390f35b3480156200026c57600080fd5b506200024c6200027e36600462002d24565b6001600160a01b0316600090815260d4602052604090205490565b348015620002a657600080fd5b50620002be620002b836600462002d24565b6200084d565b005b348015620002cd57600080fd5b506200024c620002df36600462002d42565b60d160209081526000928352604080842090915290825290205481565b3480156200030957600080fd5b506200024c6200031b36600462002d71565b6001600160a01b0391909116600090815260dc60209081526040808320938352929052205490565b3480156200035057600080fd5b50620002be6200036236600462002d9e565b620008a5565b3480156200037557600080fd5b506200024c6200038736600462002d42565b60d060209081526000928352604080842090915290825290205481565b348015620003b157600080fd5b50620002be620003c336600462002d24565b62000d7c565b348015620003d657600080fd5b50620002be620003e836600462002e01565b62000e68565b348015620003fb57600080fd5b506200024c6200040d36600462002e4e565b600091825260d96020908152604080842092845291905290205490565b620002be6200043b36600462002ee7565b62001067565b3480156200044e57600080fd5b50620004756200046036600462002ced565b600090815260d7602052604090205460ff1690565b604051901515815260200162000256565b3480156200049357600080fd5b506200024c62001144565b348015620004ab57600080fd5b5060ce54620004c0906001600160a01b031681565b6040516001600160a01b03909116815260200162000256565b348015620004e657600080fd5b506200024c620004f836600462002d42565b60cf60209081526000928352604080842090915290825290205481565b3480156200052257600080fd5b506200053a6200053436600462002f98565b620011fa565b6040805193845260208401929092529082015260600162000256565b3480156200056357600080fd5b50620002be6200057536600462002fd9565b620015f1565b3480156200058857600080fd5b50620004756200059a36600462002e4e565b600091825260da6020908152604080842092845291905290205460ff1690565b348015620005c757600080fd5b50620002be62001872565b348015620005df57600080fd5b50620002be620005f1366004620030e0565b6200188a565b3480156200060457600080fd5b50620002be6200061636600462003116565b62001977565b3480156200062957600080fd5b506200024c6200063b36600462002d42565b60ca60209081526000928352604080842090915290825290205481565b3480156200066557600080fd5b506097546001600160a01b0316620004c0565b3480156200068557600080fd5b50620004756200069736600462002d42565b600091825260d2602090815260408084206001600160a01b0393909316845291905290205460ff1690565b348015620006cf57600080fd5b50620004c0620006e136600462002ced565b600090815260d360205260409020546001600160a01b031690565b3480156200070957600080fd5b50620002be6200071b3660046200317c565b62001d8f565b3480156200072e57600080fd5b506200024c6200074036600462002d24565b60d46020526000908152604090205481565b3480156200075f57600080fd5b50620004c06200077136600462002d42565b60cb6020908152600092835260408084209091529082529020546001600160a01b031681565b348015620007a457600080fd5b50620002be620007b6366004620031bd565b62002077565b348015620007c957600080fd5b5060cd54620004c0906001600160a01b031681565b348015620007eb57600080fd5b50620002be620007fd36600462002d24565b6200237f565b3480156200081057600080fd5b50620002be6200082236600462002d24565b620023fb565b3480156200083557600080fd5b50620002be6200084736600462003219565b62002518565b60cd546001600160a01b03163314620008835760405162461bcd60e51b81526004016200087a9062003273565b60405180910390fd5b60cd80546001600160a01b0319166001600160a01b0392909216919091179055565b33620008c55760405162461bcd60e51b81526004016200087a90620032bb565b60405163d84dbdc360e01b815233600482015284906001600160a01b0382169063d84dbdc39060240160206040518083038186803b1580156200090757600080fd5b505afa1580156200091c573d6000803e3d6000fd5b505050506040513d601f19601f8201168201806040525081019062000942919062003307565b1515600114620009665760405162461bcd60e51b81526004016200087a9062003327565b6000805b33600090815260c96020908152604080832089845290915290205481101562000a755733600090815260c9602090815260408083208984529091529020805482908110620009bc57620009bc62003384565b9060005260206000209060030201600101544211801562000a4a5750600086815260d86020908152604080832033845260c983528184208a8552909252822080546001600160a01b0389169391908590811062000a1d5762000a1d62003384565b6000918252602080832060039092029091015483528201929092526040019020546001600160a01b031614155b1562000a605762000a5d600183620033b0565b91505b8062000a6c81620033cb565b9150506200096a565b50600085815260d7602052604090205460ff1615156001148062000a9a575060028110155b1562000aae5760db805460ff191660011790555b60db5460009060ff1615156001141562000d735760005b33600090815260c9602090815260408083208a845290915290205481101562000c1a57600087815260d96020908152604080832033845260c983528184208b8552909252822080549192918490811062000b235762000b2362003384565b90600052602060002090600302016000015481526020019081526020016000205460011462000c055733600090815260c9602090815260408083208a845290915290208054606491908390811062000b7f5762000b7f62003384565b60009182526020808320600260039093020191909101548a835260d08252604080842033855290925291205462000bb79190620033e9565b62000bc391906200340b565b62000bcf9083620033b0565b600088815260cf6020908152604080832033845290915281208054929450849290919062000bff9084906200342e565b90915550505b8062000c1181620033cb565b91505062000ac5565b50801562000d7357600086815260cb602090815260408083206001600160a01b03808a16855292528220541690606462000c56846002620033e9565b62000c6291906200340b565b6001600160a01b038716600090815260d4602052604081208054929350839290919062000c91908490620033b0565b9091555050600088815260d560205260408120805483929062000cb6908490620033b0565b9091555062000cc8905081846200342e565b33600081815260dc602090815260408083208d845290915290819020839055516323b872dd60e01b81529194506001600160a01b038816916323b872dd9162000d1991869190889060040162003448565b602060405180830381600087803b15801562000d3457600080fd5b505af115801562000d49573d6000803e3d6000fd5b505050506040513d601f19601f8201168201806040525081019062000d6f919062003307565b5050505b50505050505050565b306001600160a01b037f000000000000000000000000000000000000000000000000000000000000000016141562000dc85760405162461bcd60e51b81526004016200087a906200346c565b7f00000000000000000000000000000000000000000000000000000000000000006001600160a01b031662000e1360008051602062003920833981519152546001600160a01b031690565b6001600160a01b03161462000e3c5760405162461bcd60e51b81526004016200087a90620034b8565b62000e478162002846565b6040805160008082526020820190925262000e659183919062002850565b50565b3362000e885760405162461bcd60e51b81526004016200087a90620032bb565b60405163d84dbdc360e01b815233600482015284906001600160a01b0382169063d84dbdc39060240160206040518083038186803b15801562000eca57600080fd5b505afa15801562000edf573d6000803e3d6000fd5b505050506040513d601f19601f8201168201806040525081019062000f05919062003307565b151560011462000f295760405162461bcd60e51b81526004016200087a9062003327565b600083815260d9602090815260408083208784529091529020546001141562000f9f5760405162461bcd60e51b815260206004820152602160248201527f546865206d696c6573746f6e6520697320616c726561647920617070726f76656044820152601960fa1b60648201526084016200087a565b6001821515141562000fce57600083815260d96020908152604080832087845290915290206001905562001024565b816200102457600083815260d660209081526040808320878452909152812080546001929062001000908490620033b0565b9091555050600083815260d960209081526040808320878452909152902060001990555b600083815260d6602090815260408083208784529091529020546003116200106057600083815260d760205260409020805460ff191660011790555b5050505050565b306001600160a01b037f0000000000000000000000000000000000000000000000000000000000000000161415620010b35760405162461bcd60e51b81526004016200087a906200346c565b7f00000000000000000000000000000000000000000000000000000000000000006001600160a01b0316620010fe60008051602062003920833981519152546001600160a01b031690565b6001600160a01b031614620011275760405162461bcd60e51b81526004016200087a90620034b8565b620011328262002846565b620011408282600162002850565b5050565b6000306001600160a01b037f00000000000000000000000000000000000000000000000000000000000000001614620011e65760405162461bcd60e51b815260206004820152603860248201527f555550535570677261646561626c653a206d757374206e6f742062652063616c60448201527f6c6564207468726f7567682064656c656761746563616c6c000000000000000060648201526084016200087a565b506000805160206200392083398151915290565b600083815260d2602090815260408083206001600160a01b03861684529091528120548190819081908190819060ff1615156001146200125f57600089815260d1602090815260408083206001600160a01b038c168452909152902054925062001284565b50600088815260d1602090815260408083206001600160a01b038b1684529091529020545b60005b6001600160a01b038816600090815260c9602090815260408083208d84529091529020548110156200156d576001600160a01b038816600090815260c9602090815260408083208d84529091528120805483908110620012eb57620012eb62003384565b600091825260208083206003909202909101548d835260d982526040808420828552909252912054909150600114801562001340575060008b815260da6020908152604080832084845290915290205460ff16155b15620013e3576001600160a01b038916600090815260c9602090815260408083208e845290915290208054606491908490811062001382576200138262003384565b60009182526020808320600260039093020191909101548e835260d0825260408084206001600160a01b038f168552909252912054620013c39190620033e9565b620013cf91906200340b565b620013db9086620033b0565b945062001557565b60008b815260d960209081526040808320848452909152902054600114801562001476575060008b815260da602090815260408083206001600160a01b038d16845260c983528184208f855290925282208054919291859081106200144c576200144c62003384565b60009182526020808320600390920290910154835282019290925260400190205460ff1615156001145b1562001557576001600160a01b038916600090815260c9602090815260408083208e8452909152812080546064919085908110620014b857620014b862003384565b90600052602060002090600302016002015460d060008f815260200190815260200160002060008d6001600160a01b03166001600160a01b03168152602001908152602001600020546200150d9190620033e9565b6200151991906200340b565b9050600060646200152c836002620033e9565b6200153891906200340b565b90506200154681836200342e565b620015529086620033b0565b945050505b50806200156481620033cb565b91505062001287565b50600089815260d560209081526040808320546001600160a01b038b1680855260dc84528285208e865284528285205460d0855283862091865293529220548592918491620015bd91906200342e565b620015c991906200342e565b620015d591906200342e565b620015e191906200342e565b9299929850965090945050505050565b33620016115760405162461bcd60e51b81526004016200087a90620032bb565b60405163d84dbdc360e01b815233600482015283906001600160a01b0382169063d84dbdc39060240160206040518083038186803b1580156200165357600080fd5b505afa15801562001668573d6000803e3d6000fd5b505050506040513d601f19601f820116820180604052508101906200168e919062003307565b1515600114620016b25760405162461bcd60e51b81526004016200087a9062003327565b600085815260cc602052604090205460ff16151560011415620017185760405162461bcd60e51b815260206004820152601960248201527f726f756e6420496420697320616c72656164792074616b656e0000000000000060448201526064016200087a565b60005b82518110156200183c5733600090815260c9602090815260408083208984529091529020835184908390811062001756576200175662003384565b60209081029190910181015182546001818101855560009485528385208351600390930201918255828401519082015560409182015160029091015588835260d9909152812084518290869085908110620017b557620017b562003384565b602002602001015160000151815260200190815260200160002081905550600060da60008881526020019081526020016000206000858481518110620017ff57620017ff62003384565b602090810291909101810151518252810191909152604001600020805460ff19169115159190911790556200183481620033cb565b90506200171b565b505050600092835260cc60209081526040808520805460ff1916600117905560ca82528085203386529091529092209190915550565b6200187c620029dd565b62001888600062002a39565b565b33620018aa5760405162461bcd60e51b81526004016200087a90620032bb565b6040516360f0712b60e11b815233600482015283906001600160a01b0382169063c1e0e2569060240160206040518083038186803b158015620018ec57600080fd5b505afa15801562001901573d6000803e3d6000fd5b505050506040513d601f19601f8201168201806040525081019062001927919062003307565b15156001146200194b5760405162461bcd60e51b81526004016200087a9062003504565b50600090815260d8602090815260408083209383529290522080546001600160a01b0319163317905550565b33620019975760405162461bcd60e51b81526004016200087a90620032bb565b60405163d84dbdc360e01b815233600482015286906001600160a01b0382169063d84dbdc39060240160206040518083038186803b158015620019d957600080fd5b505afa158015620019ee573d6000803e3d6000fd5b505050506040513d601f19601f8201168201806040525081019062001a14919062003307565b151560011462001a385760405162461bcd60e51b81526004016200087a9062003327565b6000805b33600090815260c9602090815260408083208b845290915290205481101562001b475733600090815260c9602090815260408083208b8452909152902080548290811062001a8e5762001a8e62003384565b9060005260206000209060030201600101544211801562001b1c5750600088815260d86020908152604080832033845260c983528184208c8552909252822080546001600160a01b038b169391908590811062001aef5762001aef62003384565b6000918252602080832060039092029091015483528201929092526040019020546001600160a01b031614155b1562001b325762001b2f600183620033b0565b91505b8062001b3e81620033cb565b91505062001a3c565b50600087815260d7602052604090205460ff1615156001148062001b6c575060028110155b1562001b805760db805460ff191660011790555b60db5460ff1615156001141562001d8557600087815260d96020908152604080832088845290915281205460011462001c2b57600088815260d06020908152604080832033845290915290205460649062001bdd908790620033e9565b62001be991906200340b565b62001bf59082620033b0565b600089815260cf6020908152604080832033845290915281208054929350839290919062001c259084906200342e565b90915550505b801562001d8357600088815260cb602090815260408083206001600160a01b03808c16855292528220541690606462001c66846002620033e9565b62001c7291906200340b565b6001600160a01b038716600090815260d4602052604081208054929350839290919062001ca1908490620033b0565b909155505060008a815260d560205260408120805483929062001cc6908490620033b0565b9091555062001cd8905081846200342e565b33600081815260dc602090815260408083208f845290915290819020839055516323b872dd60e01b81529194506001600160a01b038816916323b872dd9162001d2991869190889060040162003448565b602060405180830381600087803b15801562001d4457600080fd5b505af115801562001d59573d6000803e3d6000fd5b505050506040513d601f19601f8201168201806040525081019062001d7f919062003307565b5050505b505b5050505050505050565b3362001daf5760405162461bcd60e51b81526004016200087a90620032bb565b6040516360f0712b60e11b815233600482015282906001600160a01b0382169063c1e0e2569060240160206040518083038186803b15801562001df157600080fd5b505afa15801562001e06573d6000803e3d6000fd5b505050506040513d601f19601f8201168201806040525081019062001e2c919062003307565b151560011462001e505760405162461bcd60e51b81526004016200087a9062003504565b600082815260d26020908152604080832033845290915290205460ff1615156001141562001ecc5760405162461bcd60e51b815260206004820152602260248201527f496e697469616c207769746864726177616c20697320616c726561647920646f6044820152616e6560f01b60648201526084016200087a565b600082815260cb60209081526040808320338085529083528184205486855260d1845282852091855292528220546001600160a01b03909116919062001f15906064906200340b565b62001f22906002620033e9565b6001600160a01b038716600090815260d4602052604081208054929350839290919062001f51908490620033b0565b9091555050600084815260d1602090815260408083203384529091528120805483929062001f819084906200342e565b9091555050600084815260d560205260408120805483929062001fa6908490620033b0565b9091555050600084815260d160209081526040808320338085529252918290205491516323b872dd60e01b81526001600160a01b038916926323b872dd9262001ff59287929060040162003448565b602060405180830381600087803b1580156200201057600080fd5b505af115801562002025573d6000803e3d6000fd5b505050506040513d601f19601f820116820180604052508101906200204b919062003307565b50505060009182525060d2602090815260408083203384529091529020805460ff191660011790555050565b33620020975760405162461bcd60e51b81526004016200087a90620032bb565b60405163d84dbdc360e01b815233600482015284906001600160a01b0382169063d84dbdc39060240160206040518083038186803b158015620020d957600080fd5b505afa158015620020ee573d6000803e3d6000fd5b505050506040513d601f19601f8201168201806040525081019062002114919062003307565b1515600114620021385760405162461bcd60e51b81526004016200087a9062003327565b60ce80546001600160a01b0319166001600160a01b03881617905560405160009033908490869030906200216c9062002cdf565b6001600160a01b039485168152602081019390935260408301919091529091166060820152608001604051809103906000f080158015620021b1573d6000803e3d6000fd5b50600084815260cb602090815260408083206001600160a01b03808b1680865282855283862080548389166001600160a01b0319918216811783558c895260d38852868920805490921617905595529252915491516323b872dd60e01b8152929350898116926323b872dd9262002232923392911690899060040162003448565b602060405180830381600087803b1580156200224d57600080fd5b505af115801562002262573d6000803e3d6000fd5b505050506040513d601f19601f8201168201806040525081019062002288919062003307565b50600083815260cf602090815260408083203380855290835281842088905586845260d08352818420818552835281842088905586845260ca8352818420908452909152812054606490620022de9087620033e9565b620022ea91906200340b565b600085815260d1602090815260408083206001600160a01b038b16845290915281208054929350839290919062002323908490620033b0565b9091555050600084815260d1602090815260408083206001600160a01b038a16845282528083205487845260cf83528184203385529092528220805491929091620023709084906200342e565b90915550505050505050505050565b62002389620029dd565b6001600160a01b038116620023f05760405162461bcd60e51b815260206004820152602660248201527f4f776e61626c653a206e6577206f776e657220697320746865207a65726f206160448201526564647265737360d01b60648201526084016200087a565b62000e658162002a39565b60cd546001600160a01b03163314620024285760405162461bcd60e51b81526004016200087a9062003273565b33620024695760405162461bcd60e51b815260206004820152600f60248201526e496e76616c6964206164647265737360881b60448201526064016200087a565b6001600160a01b038116600081815260d460205260409081902054905163a9059cbb60e01b8152336004820152602481019190915263a9059cbb90604401602060405180830381600087803b158015620024c257600080fd5b505af1158015620024d7573d6000803e3d6000fd5b505050506040513d601f19601f82011682018060405250810190620024fd919062003307565b506001600160a01b0316600090815260d46020526040812055565b33620025385760405162461bcd60e51b81526004016200087a90620032bb565b6040516360f0712b60e11b815233600482015286906001600160a01b0382169063c1e0e2569060240160206040518083038186803b1580156200257a57600080fd5b505afa1580156200258f573d6000803e3d6000fd5b505050506040513d601f19601f82011682018060405250810190620025b5919062003307565b1515600114620025d95760405162461bcd60e51b81526004016200087a9062003504565b600085815260d96020908152604080832087845290915281205460011480156200261d5750600086815260da6020908152604080832088845290915290205460ff16155b15620026be57600086815260d0602090815260408083206001600160a01b038b16845290915290205460649062002656908690620033e9565b6200266291906200340b565b600087815260da602090815260408083208984528252808320805460ff1916600117905589835260cf82528083206001600160a01b038c168452909152812080549293508392909190620026b89084906200342e565b90915550505b8015620027fd5760006064620026d6836002620033e9565b620026e291906200340b565b6001600160a01b038516600090815260d4602052604081208054929350839290919062002711908490620033b0565b9091555062002723905081836200342e565b91508060d5600089815260200190815260200160002060008282546200274a9190620033b0565b9091555050600087815260cb60209081526040808320338085529252918290205491516323b872dd60e01b81526001600160a01b03928316928716916323b872dd916200279e918591889060040162003448565b602060405180830381600087803b158015620027b957600080fd5b505af1158015620027ce573d6000803e3d6000fd5b505050506040513d601f19601f82011682018060405250810190620027f4919062003307565b50505062001d85565b60405162461bcd60e51b815260206004820152601e60248201527f4e6f20756e6c6f636b656420746f6b656e7320746f207769746864726177000060448201526064016200087a565b62000e65620029dd565b7f4910fdfa16fed3260ed0e7147f7cc6da11a60208b5b9406d12a635614ffd91435460ff16156200288b57620028868362002a8b565b505050565b826001600160a01b03166352d1902d6040518163ffffffff1660e01b815260040160206040518083038186803b158015620028c557600080fd5b505afa925050508015620028f8575060408051601f3d908101601f19168201909252620028f59181019062003561565b60015b6200295d5760405162461bcd60e51b815260206004820152602e60248201527f45524331393637557067726164653a206e657720696d706c656d656e7461746960448201526d6f6e206973206e6f74205555505360901b60648201526084016200087a565b600080516020620039208339815191528114620029cf5760405162461bcd60e51b815260206004820152602960248201527f45524331393637557067726164653a20756e737570706f727465642070726f786044820152681a58589b195555525160ba1b60648201526084016200087a565b506200288683838362002b2a565b6097546001600160a01b03163314620018885760405162461bcd60e51b815260206004820181905260248201527f4f776e61626c653a2063616c6c6572206973206e6f7420746865206f776e657260448201526064016200087a565b609780546001600160a01b038381166001600160a01b0319831681179093556040519116919082907f8be0079c531659141344cd1fd0a4f28419497f9722a3daafe3b4186f6b6457e090600090a35050565b6001600160a01b0381163b62002afa5760405162461bcd60e51b815260206004820152602d60248201527f455243313936373a206e657720696d706c656d656e746174696f6e206973206e60448201526c1bdd08184818dbdb9d1c9858dd609a1b60648201526084016200087a565b6000805160206200392083398151915280546001600160a01b0319166001600160a01b0392909216919091179055565b62002b358362002b5b565b60008251118062002b435750805b15620028865762002b55838362002b9d565b50505050565b62002b668162002a8b565b6040516001600160a01b038216907fbc7cd75a20ee27fd9adebab32041f755214dbc6bffa90cc0225b39da2e5c2d3b90600090a250565b60606001600160a01b0383163b62002c075760405162461bcd60e51b815260206004820152602660248201527f416464726573733a2064656c65676174652063616c6c20746f206e6f6e2d636f6044820152651b9d1c9858dd60d21b60648201526084016200087a565b600080846001600160a01b03168460405162002c249190620035aa565b600060405180830381855af49150503d806000811462002c61576040519150601f19603f3d011682016040523d82523d6000602084013e62002c66565b606091505b509150915062002c918282604051806060016040528060278152602001620039406027913962002c9a565b95945050505050565b6060831562002cab57508162002cd8565b82511562002cbc5782518084602001fd5b8160405162461bcd60e51b81526004016200087a9190620035c8565b9392505050565b61032280620035fe83390190565b60006020828403121562002d0057600080fd5b5035919050565b80356001600160a01b038116811462002d1f57600080fd5b919050565b60006020828403121562002d3757600080fd5b62002cd88262002d07565b6000806040838503121562002d5657600080fd5b8235915062002d686020840162002d07565b90509250929050565b6000806040838503121562002d8557600080fd5b62002d908362002d07565b946020939093013593505050565b6000806000806080858703121562002db557600080fd5b62002dc08562002d07565b93506020850135925062002dd76040860162002d07565b915062002de76060860162002d07565b905092959194509250565b801515811462000e6557600080fd5b6000806000806080858703121562002e1857600080fd5b62002e238562002d07565b93506020850135925060408501359150606085013562002e438162002df2565b939692955090935050565b6000806040838503121562002e6257600080fd5b50508035926020909101359150565b634e487b7160e01b600052604160045260246000fd5b6040516060810167ffffffffffffffff8111828210171562002ead5762002ead62002e71565b60405290565b604051601f8201601f1916810167ffffffffffffffff8111828210171562002edf5762002edf62002e71565b604052919050565b6000806040838503121562002efb57600080fd5b62002f068362002d07565b915060208084013567ffffffffffffffff8082111562002f2557600080fd5b818601915086601f83011262002f3a57600080fd5b81358181111562002f4f5762002f4f62002e71565b62002f63601f8201601f1916850162002eb3565b9150808252878482850101111562002f7a57600080fd5b80848401858401376000848284010152508093505050509250929050565b60008060006060848603121562002fae57600080fd5b8335925062002fc06020850162002d07565b915062002fd06040850162002d07565b90509250925092565b6000806000806080858703121562002ff057600080fd5b8435935060206200300381870162002d07565b9350604080870135935060608088013567ffffffffffffffff808211156200302a57600080fd5b818a0191508a601f8301126200303f57600080fd5b81358181111562003054576200305462002e71565b62003064868260051b0162002eb3565b818152868101925090840283018601908c8211156200308257600080fd5b928601925b81841015620030cf5784848e031215620030a15760008081fd5b620030ab62002e87565b84358152878501358882015286850135878201528352928401929186019162003087565b999c989b5096995050505050505050565b600080600060608486031215620030f657600080fd5b620031018462002d07565b95602085013595506040909401359392505050565b60008060008060008060c087890312156200313057600080fd5b6200313b8762002d07565b955060208701359450620031526040880162002d07565b935060608701359250608087013591506200317060a0880162002d07565b90509295509295509295565b6000806000606084860312156200319257600080fd5b6200319d8462002d07565b9250620031ad6020850162002d07565b9150604084013590509250925092565b600080600080600060a08688031215620031d657600080fd5b620031e18662002d07565b9450620031f16020870162002d07565b9350620032016040870162002d07565b94979396509394606081013594506080013592915050565b60008060008060008060c087890312156200323357600080fd5b6200323e8762002d07565b95506200324e6020880162002d07565b94506040870135935060608701359250608087013591506200317060a0880162002d07565b60208082526028908201527f53656e646572206973206e6f7420746865206f776e6572206f6620746869732060408201526718dbdb9d1c9858dd60c21b606082015260800190565b6020808252602c908201527f5468652061646472657373206973206e6f742076616c6964206f72207468652060408201526b06164647265737320697320360a41b606082015260800190565b6000602082840312156200331a57600080fd5b815162002cd88162002df2565b6020808252603d908201527f5468652061646472657373206973206e6f74207265676973746572656420696e60408201527f207468652027496e766573746f724c6f67696e2720636f6e7472616374000000606082015260800190565b634e487b7160e01b600052603260045260246000fd5b634e487b7160e01b600052601160045260246000fd5b60008219821115620033c657620033c66200339a565b500190565b6000600019821415620033e257620033e26200339a565b5060010190565b60008160001904831182151516156200340657620034066200339a565b500290565b6000826200342957634e487b7160e01b600052601260045260246000fd5b500490565b6000828210156200344357620034436200339a565b500390565b6001600160a01b039384168152919092166020820152604081019190915260600190565b6020808252602c908201527f46756e6374696f6e206d7573742062652063616c6c6564207468726f7567682060408201526b19195b1959d85d1958d85b1b60a21b606082015260800190565b6020808252602c908201527f46756e6374696f6e206d7573742062652063616c6c6564207468726f7567682060408201526b6163746976652070726f787960a01b606082015260800190565b60208082526037908201527f5468652061646472657373206973206e6f74207265676973746572656420696e60408201527f207468652027466f756e6465722720636f6e7472616374000000000000000000606082015260800190565b6000602082840312156200357457600080fd5b5051919050565b60005b83811015620035985781810151838201526020016200357e565b8381111562002b555750506000910152565b60008251620035be8184602087016200357b565b9190910192915050565b6020815260008251806020840152620035e98160408501602087016200357b565b601f01601f1916919091016040019291505056fe608060405234801561001057600080fd5b5060405161032238038061032283398101604081905261002f9161017e565b600080546001600160a01b031916331781558381526001602090815260408083206001600160a01b038881168552908352928190208590558051632ad1b9eb60e11b81529051928416926355a373d692600480840193919291829003018186803b15801561009c57600080fd5b505afa1580156100b0573d6000803e3d6000fd5b505050506040513d601f19601f820116820180604052508101906100d491906101c4565b60405163095ea7b360e01b81526001600160a01b03838116600483015260248201859052919091169063095ea7b390604401602060405180830381600087803b15801561012057600080fd5b505af1158015610134573d6000803e3d6000fd5b505050506040513d601f19601f8201168201806040525081019061015891906101e6565b5050505050610208565b80516001600160a01b038116811461017957600080fd5b919050565b6000806000806080858703121561019457600080fd5b61019d85610162565b935060208501519250604085015191506101b960608601610162565b905092959194509250565b6000602082840312156101d657600080fd5b6101df82610162565b9392505050565b6000602082840312156101f857600080fd5b815180151581146101df57600080fd5b61010b806102176000396000f3fe6080604052348015600f57600080fd5b506004361060325760003560e01c80632bb3b114146037578063a7b5d614146066575b600080fd5b6000546049906001600160a01b031681565b6040516001600160a01b0390911681526020015b60405180910390f35b608e6071366004609b565b600160209081526000928352604080842090915290825290205481565b604051908152602001605d565b6000806040838503121560ad57600080fd5b8235915060208301356001600160a01b038116811460ca57600080fd5b80915050925092905056fea26469706673582212207b87cdc8434be56fefd328d39b12bb3c1feddd38fe96f0a298a243e6d57e817d64736f6c63430008090033360894a13ba1a3210667c828492db98dca3e2076cc3735a920a3ca505d382bbc416464726573733a206c6f772d6c6576656c2064656c65676174652063616c6c206661696c6564a26469706673582212202499cffedbdeeab303fb93a90dce0965d78c3aa41bf31662c84eae939a6b01ea64736f6c63430008090033",
  "linkReferences": {},
  "deployedLinkReferences": {}
}