{
  "_format": "hh-sol-artifact-1",
  "contractName": "Factory",
  "sourceName": "contracts/ProjectAndProposal.sol",
  "abi": [
    {
      "inputs": [
        {
          "internalType": "address",
          "name": "_ad",
          "type": "address"
        }
      ],
      "name": "addValidators",
      "outputs": [],
      "stateMutability": "nonpayable",
      "type": "function"
    },
    {
      "inputs": [
        {
          "internalType": "address",
          "name": "_ad",
          "type": "address"
        }
      ],
      "name": "checkValidatorIsRegistered",
      "outputs": [
        {
          "internalType": "bool",
          "name": "condition",
          "type": "bool"
        }
      ],
      "stateMutability": "view",
      "type": "function"
    },
    {
      "inputs": [],
      "name": "returnArray",
      "outputs": [
        {
          "internalType": "address[]",
          "name": "",
          "type": "address[]"
        }
      ],
      "stateMutability": "view",
      "type": "function"
    }
  ],
  "bytecode": "0x608060405234801561001057600080fd5b506102bb806100206000396000f3fe608060405234801561001057600080fd5b50600436106100415760003560e01c80633cac14c8146100465780635e22b80a14610064578063efb0b65514610087575b600080fd5b61004e61009c565b60405161005b9190610208565b60405180910390f35b610077610072366004610255565b6100fe565b604051901515815260200161005b565b61009a610095366004610255565b610134565b005b606060008054806020026020016040519081016040528092919081815260200182805480156100f457602002820191906000526020600020905b81546001600160a01b031681526001909101906020018083116100d6575b5050505050905090565b6001600160a01b038116600090815260016020819052604082205460ff161515141561012c57506001919050565b506000919050565b336001600160a01b038216146101a35760405162461bcd60e51b815260206004820152602a60248201527f706c6561736520757365207468652061646472657373206f6620636f6e6e65636044820152691d1959081dd85b1b195d60b21b606482015260840160405180910390fd5b60008054600181810183557f290decd9548b62a8d60345a988386fc84ba6bc95484008f6362f93160ef3e56390910180546001600160a01b039094166001600160a01b031990941684179055918152602082905260409020805460ff19169091179055565b6020808252825182820181905260009190848201906040850190845b818110156102495783516001600160a01b031683529284019291840191600101610224565b50909695505050505050565b60006020828403121561026757600080fd5b81356001600160a01b038116811461027e57600080fd5b939250505056fea2646970667358221220541017179b9e2e4fdb3e35745898f0d79b5e2507a59dd8d0d20c38e23d8e445c64736f6c63430008090033",
  "linkReferences": {},
  "deployedLinkReferences": {}
}