{
  "_format": "hh-sol-artifact-1",
  "contractName": "Founder",
  "sourceName": "contracts/ProjectAndProposal.sol",
  "abi": [
    {
      "inputs": [
        {
          "internalType": "address",
          "name": "_ad",
          "type": "address"
        }
      ],
      "name": "addFounder",
      "outputs": [],
      "stateMutability": "nonpayable",
      "type": "function"
    },
    {
      "inputs": [],
      "name": "getAllFounderAddress",
      "outputs": [
        {
          "internalType": "address[]",
          "name": "",
          "type": "address[]"
        }
      ],
      "stateMutability": "view",
      "type": "function"
    },
    {
      "inputs": [
        {
          "internalType": "address",
          "name": "_ad",
          "type": "address"
        }
      ],
      "name": "verifyFounder",
      "outputs": [
        {
          "internalType": "bool",
          "name": "condition",
          "type": "bool"
        }
      ],
      "stateMutability": "view",
      "type": "function"
    }
  ],
  "bytecode": "0x608060405234801561001057600080fd5b506102b9806100206000396000f3fe608060405234801561001057600080fd5b50600436106100415760003560e01c8063aba22d3e14610046578063c1e0e25614610064578063ef4ec04714610087575b600080fd5b61004e61009c565b60405161005b9190610206565b60405180910390f35b610077610072366004610253565b6100fe565b604051901515815260200161005b565b61009a610095366004610253565b610134565b005b606060018054806020026020016040519081016040528092919081815260200182805480156100f457602002820191906000526020600020905b81546001600160a01b031681526001909101906020018083116100d6575b5050505050905090565b6001600160a01b03811660009081526020819052604081205460ff1615156001141561012c57506001919050565b506000919050565b336001600160a01b038216146101a35760405162461bcd60e51b815260206004820152602a60248201527f436f6e6e6563742073616d652077616c6c657420746f2061646420666f756e646044820152696572206164647265737360b01b606482015260840160405180910390fd5b6001600160a01b03166000818152602081905260408120805460ff191660019081179091558054808201825591527fb10e2d527612073b26eecdfd717e6a320cf44b4afac2b0732d9fcbe2b7fa0cf60180546001600160a01b0319169091179055565b6020808252825182820181905260009190848201906040850190845b818110156102475783516001600160a01b031683529284019291840191600101610222565b50909695505050505050565b60006020828403121561026557600080fd5b81356001600160a01b038116811461027c57600080fd5b939250505056fea2646970667358221220e640a2bafa4318680c493fa11324dcd0792e85a3919c59dbd8580b2af570135664736f6c63430008090033",
  "linkReferences": {},
  "deployedLinkReferences": {}
}