{
  "_format": "hh-sol-artifact-1",
  "contractName": "ProjectAndProposal",
  "sourceName": "contracts/ProjectAndProposal.sol",
  "abi": [
    {
      "anonymous": false,
      "inputs": [
        {
          "indexed": false,
          "internalType": "address",
          "name": "previousAdmin",
          "type": "address"
        },
        {
          "indexed": false,
          "internalType": "address",
          "name": "newAdmin",
          "type": "address"
        }
      ],
      "name": "AdminChanged",
      "type": "event"
    },
    {
      "anonymous": false,
      "inputs": [
        {
          "indexed": true,
          "internalType": "address",
          "name": "beacon",
          "type": "address"
        }
      ],
      "name": "BeaconUpgraded",
      "type": "event"
    },
    {
      "anonymous": false,
      "inputs": [
        {
          "indexed": false,
          "internalType": "uint8",
          "name": "version",
          "type": "uint8"
        }
      ],
      "name": "Initialized",
      "type": "event"
    },
    {
      "anonymous": false,
      "inputs": [
        {
          "indexed": true,
          "internalType": "address",
          "name": "previousOwner",
          "type": "address"
        },
        {
          "indexed": true,
          "internalType": "address",
          "name": "newOwner",
          "type": "address"
        }
      ],
      "name": "OwnershipTransferred",
      "type": "event"
    },
    {
      "anonymous": false,
      "inputs": [
        {
          "indexed": true,
          "internalType": "address",
          "name": "implementation",
          "type": "address"
        }
      ],
      "name": "Upgraded",
      "type": "event"
    },
    {
      "inputs": [
        {
          "internalType": "bool",
          "name": "_choice",
          "type": "bool"
        },
        {
          "internalType": "address",
          "name": "_validator",
          "type": "address"
        },
        {
          "internalType": "address",
          "name": "_contractad",
          "type": "address"
        },
        {
          "internalType": "uint256",
          "name": "_subsId",
          "type": "uint256"
        },
        {
          "internalType": "uint256",
          "name": "_projectId",
          "type": "uint256"
        }
      ],
      "name": "Validate",
      "outputs": [
        {
          "internalType": "bool",
          "name": "voted",
          "type": "bool"
        }
      ],
      "stateMutability": "nonpayable",
      "type": "function"
    },
    {
      "inputs": [
        {
          "internalType": "address",
          "name": "_founderSmartContractAd",
          "type": "address"
        },
        {
          "internalType": "address",
          "name": "_founder",
          "type": "address"
        },
        {
          "internalType": "address",
          "name": "_investor",
          "type": "address"
        },
        {
          "internalType": "bytes32",
          "name": "symbol",
          "type": "bytes32"
        },
        {
          "internalType": "uint256",
          "name": "_projectId",
          "type": "uint256"
        }
      ],
      "name": "Withdraw10PercentOfStableCoin",
      "outputs": [],
      "stateMutability": "nonpayable",
      "type": "function"
    },
    {
      "inputs": [
        {
          "internalType": "uint256",
          "name": "_projectId",
          "type": "uint256"
        },
        {
          "internalType": "uint256",
          "name": "_subsId",
          "type": "uint256"
        }
      ],
      "name": "_approvedValidators",
      "outputs": [
        {
          "internalType": "address[]",
          "name": "",
          "type": "address[]"
        }
      ],
      "stateMutability": "view",
      "type": "function"
    },
    {
      "inputs": [
        {
          "internalType": "uint256",
          "name": "_projectId",
          "type": "uint256"
        },
        {
          "internalType": "address",
          "name": "_investor",
          "type": "address"
        }
      ],
      "name": "_checkTenPecentOfStableToken",
      "outputs": [
        {
          "internalType": "uint256",
          "name": "",
          "type": "uint256"
        }
      ],
      "stateMutability": "view",
      "type": "function"
    },
    {
      "inputs": [
        {
          "internalType": "uint256",
          "name": "_projectId",
          "type": "uint256"
        },
        {
          "internalType": "address",
          "name": "_investor",
          "type": "address"
        }
      ],
      "name": "_depositStatus",
      "outputs": [
        {
          "internalType": "bool",
          "name": "",
          "type": "bool"
        }
      ],
      "stateMutability": "view",
      "type": "function"
    },
    {
      "inputs": [
        {
          "internalType": "uint256",
          "name": "_projectId",
          "type": "uint256"
        },
        {
          "internalType": "uint256",
          "name": "_initialId",
          "type": "uint256"
        }
      ],
      "name": "_getInitialProposalRequestedFund",
      "outputs": [
        {
          "internalType": "uint256",
          "name": "",
          "type": "uint256"
        }
      ],
      "stateMutability": "view",
      "type": "function"
    },
    {
      "inputs": [
        {
          "internalType": "uint256",
          "name": "_projectId",
          "type": "uint256"
        },
        {
          "internalType": "address",
          "name": "_investor",
          "type": "address"
        }
      ],
      "name": "_getInvestorCurrentBalance",
      "outputs": [
        {
          "internalType": "uint256",
          "name": "",
          "type": "uint256"
        }
      ],
      "stateMutability": "view",
      "type": "function"
    },
    {
      "inputs": [
        {
          "internalType": "uint256",
          "name": "_projectId",
          "type": "uint256"
        },
        {
          "internalType": "address",
          "name": "_investor",
          "type": "address"
        }
      ],
      "name": "_getInvestorInvestedBalance",
      "outputs": [
        {
          "internalType": "uint256",
          "name": "",
          "type": "uint256"
        }
      ],
      "stateMutability": "view",
      "type": "function"
    },
    {
      "inputs": [
        {
          "internalType": "uint256",
          "name": "_projectId",
          "type": "uint256"
        }
      ],
      "name": "_getProjectCurrentCycle",
      "outputs": [
        {
          "internalType": "uint256",
          "name": "",
          "type": "uint256"
        }
      ],
      "stateMutability": "view",
      "type": "function"
    },
    {
      "inputs": [
        {
          "internalType": "uint256",
          "name": "_projectId",
          "type": "uint256"
        }
      ],
      "name": "_getProjectCurrentEscrowBalance",
      "outputs": [
        {
          "internalType": "uint256",
          "name": "",
          "type": "uint256"
        }
      ],
      "stateMutability": "view",
      "type": "function"
    },
    {
      "inputs": [
        {
          "internalType": "uint256",
          "name": "_projectId",
          "type": "uint256"
        }
      ],
      "name": "_getProjectCycles",
      "outputs": [
        {
          "internalType": "uint256",
          "name": "",
          "type": "uint256"
        }
      ],
      "stateMutability": "view",
      "type": "function"
    },
    {
      "inputs": [
        {
          "internalType": "uint256",
          "name": "_projectId",
          "type": "uint256"
        },
        {
          "internalType": "address",
          "name": "_founder",
          "type": "address"
        }
      ],
      "name": "_getProjectEscrowBalance",
      "outputs": [
        {
          "internalType": "uint256",
          "name": "",
          "type": "uint256"
        }
      ],
      "stateMutability": "view",
      "type": "function"
    },
    {
      "inputs": [
        {
          "internalType": "uint256",
          "name": "_projectId",
          "type": "uint256"
        }
      ],
      "name": "_getProjectStatus",
      "outputs": [
        {
          "internalType": "string",
          "name": "",
          "type": "string"
        }
      ],
      "stateMutability": "view",
      "type": "function"
    },
    {
      "inputs": [
        {
          "internalType": "uint256",
          "name": "_projectId",
          "type": "uint256"
        }
      ],
      "name": "_getRejectedSubsequentProposalsCount",
      "outputs": [
        {
          "internalType": "uint256",
          "name": "",
          "type": "uint256"
        }
      ],
      "stateMutability": "view",
      "type": "function"
    },
    {
      "inputs": [
        {
          "internalType": "uint256",
          "name": "_projectId",
          "type": "uint256"
        },
        {
          "internalType": "uint256",
          "name": "_subsId",
          "type": "uint256"
        }
      ],
      "name": "_getSubsequentProposalFund",
      "outputs": [
        {
          "internalType": "uint256",
          "name": "",
          "type": "uint256"
        }
      ],
      "stateMutability": "view",
      "type": "function"
    },
    {
      "inputs": [
        {
          "internalType": "uint256",
          "name": "_projectId",
          "type": "uint256"
        },
        {
          "internalType": "uint256",
          "name": "_subsId",
          "type": "uint256"
        }
      ],
      "name": "_getSubsequentProposalStatus",
      "outputs": [
        {
          "internalType": "string",
          "name": "",
          "type": "string"
        }
      ],
      "stateMutability": "view",
      "type": "function"
    },
    {
      "inputs": [
        {
          "internalType": "uint256",
          "name": "_projectId",
          "type": "uint256"
        },
        {
          "internalType": "uint256",
          "name": "_subsId",
          "type": "uint256"
        }
      ],
      "name": "_getTheSubsequentProposalWithdrawalStatus",
      "outputs": [
        {
          "internalType": "bool",
          "name": "",
          "type": "bool"
        }
      ],
      "stateMutability": "view",
      "type": "function"
    },
    {
      "inputs": [
        {
          "internalType": "uint256",
          "name": "_projectId",
          "type": "uint256"
        },
        {
          "internalType": "address",
          "name": "_investor",
          "type": "address"
        }
      ],
      "name": "_getTheTenpercentWithdrawalStatus",
      "outputs": [
        {
          "internalType": "bool",
          "name": "",
          "type": "bool"
        }
      ],
      "stateMutability": "view",
      "type": "function"
    },
    {
      "inputs": [
        {
          "internalType": "uint256",
          "name": "_projectId",
          "type": "uint256"
        },
        {
          "internalType": "address",
          "name": "_founder",
          "type": "address"
        }
      ],
      "name": "_getTotalReleasedFundsToFounderFromEscrow",
      "outputs": [
        {
          "internalType": "uint256",
          "name": "",
          "type": "uint256"
        }
      ],
      "stateMutability": "view",
      "type": "function"
    },
    {
      "inputs": [
        {
          "internalType": "uint256",
          "name": "_projectId",
          "type": "uint256"
        },
        {
          "internalType": "uint256",
          "name": "_subsId",
          "type": "uint256"
        }
      ],
      "name": "_rejectedValidators",
      "outputs": [
        {
          "internalType": "address[]",
          "name": "",
          "type": "address[]"
        }
      ],
      "stateMutability": "view",
      "type": "function"
    },
    {
      "inputs": [
        {
          "internalType": "uint256",
          "name": "",
          "type": "uint256"
        },
        {
          "internalType": "uint256",
          "name": "",
          "type": "uint256"
        },
        {
          "internalType": "uint256",
          "name": "",
          "type": "uint256"
        }
      ],
      "name": "approvals",
      "outputs": [
        {
          "internalType": "address",
          "name": "",
          "type": "address"
        }
      ],
      "stateMutability": "view",
      "type": "function"
    },
    {
      "inputs": [
        {
          "internalType": "address",
          "name": "_investor",
          "type": "address"
        },
        {
          "internalType": "address",
          "name": "_founder",
          "type": "address"
        },
        {
          "internalType": "uint256",
          "name": "_amount",
          "type": "uint256"
        },
        {
          "internalType": "bytes32",
          "name": "symbol",
          "type": "bytes32"
        },
        {
          "internalType": "address",
          "name": "tokenAddress",
          "type": "address"
        },
        {
          "internalType": "uint256",
          "name": "_initialId",
          "type": "uint256"
        },
        {
          "internalType": "uint256",
          "name": "_projectId",
          "type": "uint256"
        }
      ],
      "name": "depositStableTokens",
      "outputs": [],
      "stateMutability": "nonpayable",
      "type": "function"
    },
    {
      "inputs": [
        {
          "internalType": "uint256",
          "name": "",
          "type": "uint256"
        },
        {
          "internalType": "uint256",
          "name": "",
          "type": "uint256"
        }
      ],
      "name": "getInitialProposalRequestedFund",
      "outputs": [
        {
          "internalType": "uint256",
          "name": "",
          "type": "uint256"
        }
      ],
      "stateMutability": "view",
      "type": "function"
    },
    {
      "inputs": [
        {
          "internalType": "uint256",
          "name": "",
          "type": "uint256"
        },
        {
          "internalType": "address",
          "name": "",
          "type": "address"
        }
      ],
      "name": "getInvestorCurrentBalance",
      "outputs": [
        {
          "internalType": "uint256",
          "name": "",
          "type": "uint256"
        }
      ],
      "stateMutability": "view",
      "type": "function"
    },
    {
      "inputs": [
        {
          "internalType": "uint256",
          "name": "",
          "type": "uint256"
        },
        {
          "internalType": "address",
          "name": "",
          "type": "address"
        }
      ],
      "name": "getInvestorInvestedBalance",
      "outputs": [
        {
          "internalType": "uint256",
          "name": "",
          "type": "uint256"
        }
      ],
      "stateMutability": "view",
      "type": "function"
    },
    {
      "inputs": [
        {
          "internalType": "uint256",
          "name": "",
          "type": "uint256"
        }
      ],
      "name": "getProjectCurrentCycle",
      "outputs": [
        {
          "internalType": "uint256",
          "name": "",
          "type": "uint256"
        }
      ],
      "stateMutability": "view",
      "type": "function"
    },
    {
      "inputs": [
        {
          "internalType": "uint256",
          "name": "",
          "type": "uint256"
        }
      ],
      "name": "getProjectCycles",
      "outputs": [
        {
          "internalType": "uint256",
          "name": "",
          "type": "uint256"
        }
      ],
      "stateMutability": "view",
      "type": "function"
    },
    {
      "inputs": [
        {
          "internalType": "uint256",
          "name": "",
          "type": "uint256"
        },
        {
          "internalType": "address",
          "name": "",
          "type": "address"
        }
      ],
      "name": "getProjectEscrowBalance",
      "outputs": [
        {
          "internalType": "uint256",
          "name": "",
          "type": "uint256"
        }
      ],
      "stateMutability": "view",
      "type": "function"
    },
    {
      "inputs": [
        {
          "internalType": "uint256",
          "name": "",
          "type": "uint256"
        }
      ],
      "name": "getProjectStatus",
      "outputs": [
        {
          "internalType": "string",
          "name": "",
          "type": "string"
        }
      ],
      "stateMutability": "view",
      "type": "function"
    },
    {
      "inputs": [
        {
          "internalType": "uint256",
          "name": "",
          "type": "uint256"
        }
      ],
      "name": "getRejectedSubsequentProposalsCounts",
      "outputs": [
        {
          "internalType": "uint256",
          "name": "",
          "type": "uint256"
        }
      ],
      "stateMutability": "view",
      "type": "function"
    },
    {
      "inputs": [
        {
          "internalType": "uint256",
          "name": "",
          "type": "uint256"
        },
        {
          "internalType": "uint256",
          "name": "",
          "type": "uint256"
        }
      ],
      "name": "getSubsequentProposalFund",
      "outputs": [
        {
          "internalType": "uint256",
          "name": "",
          "type": "uint256"
        }
      ],
      "stateMutability": "view",
      "type": "function"
    },
    {
      "inputs": [
        {
          "internalType": "uint256",
          "name": "",
          "type": "uint256"
        },
        {
          "internalType": "uint256",
          "name": "",
          "type": "uint256"
        }
      ],
      "name": "getSubsequentProposalStatus",
      "outputs": [
        {
          "internalType": "string",
          "name": "",
          "type": "string"
        }
      ],
      "stateMutability": "view",
      "type": "function"
    },
    {
      "inputs": [
        {
          "internalType": "uint256",
          "name": "",
          "type": "uint256"
        },
        {
          "internalType": "uint256",
          "name": "",
          "type": "uint256"
        }
      ],
      "name": "getTheSubsequentProposalWithdrawalStatus",
      "outputs": [
        {
          "internalType": "bool",
          "name": "",
          "type": "bool"
        }
      ],
      "stateMutability": "view",
      "type": "function"
    },
    {
      "inputs": [
        {
          "internalType": "uint256",
          "name": "",
          "type": "uint256"
        },
        {
          "internalType": "address",
          "name": "",
          "type": "address"
        }
      ],
      "name": "getTheTenpercentWithdrawalStatus",
      "outputs": [
        {
          "internalType": "bool",
          "name": "",
          "type": "bool"
        }
      ],
      "stateMutability": "view",
      "type": "function"
    },
    {
      "inputs": [
        {
          "internalType": "uint256",
          "name": "",
          "type": "uint256"
        }
      ],
      "name": "getTotalProjectValue",
      "outputs": [
        {
          "internalType": "uint256",
          "name": "",
          "type": "uint256"
        }
      ],
      "stateMutability": "view",
      "type": "function"
    },
    {
      "inputs": [
        {
          "internalType": "uint256",
          "name": "",
          "type": "uint256"
        },
        {
          "internalType": "address",
          "name": "",
          "type": "address"
        }
      ],
      "name": "getTotalReleasedFundsToFounderFromEscrow",
      "outputs": [
        {
          "internalType": "uint256",
          "name": "",
          "type": "uint256"
        }
      ],
      "stateMutability": "view",
      "type": "function"
    },
    {
      "inputs": [
        {
          "internalType": "bytes32",
          "name": "token",
          "type": "bytes32"
        }
      ],
      "name": "getWhitelistedTokenAddresses",
      "outputs": [
        {
          "internalType": "address",
          "name": "",
          "type": "address"
        }
      ],
      "stateMutability": "view",
      "type": "function"
    },
    {
      "inputs": [
        {
          "internalType": "uint256",
          "name": "",
          "type": "uint256"
        },
        {
          "internalType": "address",
          "name": "",
          "type": "address"
        }
      ],
      "name": "initialInvestorId",
      "outputs": [
        {
          "internalType": "address",
          "name": "",
          "type": "address"
        }
      ],
      "stateMutability": "view",
      "type": "function"
    },
    {
      "inputs": [
        {
          "internalType": "uint256",
          "name": "",
          "type": "uint256"
        },
        {
          "internalType": "address",
          "name": "",
          "type": "address"
        }
      ],
      "name": "initialNinentyInvestor",
      "outputs": [
        {
          "internalType": "uint256",
          "name": "",
          "type": "uint256"
        }
      ],
      "stateMutability": "view",
      "type": "function"
    },
    {
      "inputs": [
        {
          "internalType": "uint256",
          "name": "",
          "type": "uint256"
        },
        {
          "internalType": "address",
          "name": "",
          "type": "address"
        }
      ],
      "name": "initialTenPercentOfInvestor",
      "outputs": [
        {
          "internalType": "uint256",
          "name": "",
          "type": "uint256"
        }
      ],
      "stateMutability": "view",
      "type": "function"
    },
    {
      "inputs": [],
      "name": "owner",
      "outputs": [
        {
          "internalType": "address",
          "name": "",
          "type": "address"
        }
      ],
      "stateMutability": "view",
      "type": "function"
    },
    {
      "inputs": [
        {
          "internalType": "address",
          "name": "",
          "type": "address"
        }
      ],
      "name": "projectIdAndFounder",
      "outputs": [
        {
          "internalType": "uint256",
          "name": "",
          "type": "uint256"
        }
      ],
      "stateMutability": "view",
      "type": "function"
    },
    {
      "inputs": [],
      "name": "projectRejectionStatus",
      "outputs": [
        {
          "internalType": "bool",
          "name": "",
          "type": "bool"
        }
      ],
      "stateMutability": "view",
      "type": "function"
    },
    {
      "inputs": [],
      "name": "proxiableUUID",
      "outputs": [
        {
          "internalType": "bytes32",
          "name": "",
          "type": "bytes32"
        }
      ],
      "stateMutability": "view",
      "type": "function"
    },
    {
      "inputs": [
        {
          "internalType": "uint256",
          "name": "",
          "type": "uint256"
        },
        {
          "internalType": "uint256",
          "name": "",
          "type": "uint256"
        },
        {
          "internalType": "uint256",
          "name": "",
          "type": "uint256"
        }
      ],
      "name": "rejections",
      "outputs": [
        {
          "internalType": "address",
          "name": "",
          "type": "address"
        }
      ],
      "stateMutability": "view",
      "type": "function"
    },
    {
      "inputs": [],
      "name": "renounceOwnership",
      "outputs": [],
      "stateMutability": "nonpayable",
      "type": "function"
    },
    {
      "inputs": [
        {
          "internalType": "uint256",
          "name": "",
          "type": "uint256"
        },
        {
          "internalType": "address",
          "name": "",
          "type": "address"
        }
      ],
      "name": "seperateContractLink",
      "outputs": [
        {
          "internalType": "address",
          "name": "",
          "type": "address"
        }
      ],
      "stateMutability": "view",
      "type": "function"
    },
    {
      "inputs": [
        {
          "internalType": "address",
          "name": "_founderSmartContractAd",
          "type": "address"
        },
        {
          "internalType": "address",
          "name": "_founderAd",
          "type": "address"
        },
        {
          "internalType": "uint256",
          "name": "_projectId",
          "type": "uint256"
        },
        {
          "internalType": "uint256",
          "name": "_cycles",
          "type": "uint256"
        }
      ],
      "name": "setFounderAndCycleForTheProject",
      "outputs": [],
      "stateMutability": "nonpayable",
      "type": "function"
    },
    {
      "inputs": [
        {
          "internalType": "address",
          "name": "_founder",
          "type": "address"
        },
        {
          "internalType": "address",
          "name": "_investor",
          "type": "address"
        },
        {
          "internalType": "uint256",
          "name": "_initialId",
          "type": "uint256"
        },
        {
          "internalType": "uint256",
          "name": "_projectId",
          "type": "uint256"
        },
        {
          "internalType": "uint256",
          "name": "_totalValProposal",
          "type": "uint256"
        }
      ],
      "name": "setInitialId",
      "outputs": [],
      "stateMutability": "nonpayable",
      "type": "function"
    },
    {
      "inputs": [
        {
          "internalType": "address",
          "name": "_founder",
          "type": "address"
        },
        {
          "internalType": "uint256",
          "name": "_subsId",
          "type": "uint256"
        },
        {
          "internalType": "uint256",
          "name": "_projectId",
          "type": "uint256"
        }
      ],
      "name": "setSubsequentId",
      "outputs": [],
      "stateMutability": "nonpayable",
      "type": "function"
    },
    {
      "inputs": [],
      "name": "tokenContract",
      "outputs": [
        {
          "internalType": "address",
          "name": "",
          "type": "address"
        }
      ],
      "stateMutability": "view",
      "type": "function"
    },
    {
      "inputs": [
        {
          "internalType": "address",
          "name": "newOwner",
          "type": "address"
        }
      ],
      "name": "transferOwnership",
      "outputs": [],
      "stateMutability": "nonpayable",
      "type": "function"
    },
    {
      "inputs": [
        {
          "internalType": "address",
          "name": "newImplementation",
          "type": "address"
        }
      ],
      "name": "upgradeTo",
      "outputs": [],
      "stateMutability": "nonpayable",
      "type": "function"
    },
    {
      "inputs": [
        {
          "internalType": "address",
          "name": "newImplementation",
          "type": "address"
        },
        {
          "internalType": "bytes",
          "name": "data",
          "type": "bytes"
        }
      ],
      "name": "upgradeToAndCall",
      "outputs": [],
      "stateMutability": "payable",
      "type": "function"
    },
    {
      "inputs": [
        {
          "internalType": "uint256",
          "name": "subs_Id",
          "type": "uint256"
        },
        {
          "internalType": "address",
          "name": "_founder",
          "type": "address"
        },
        {
          "internalType": "bytes32",
          "name": "symbol",
          "type": "bytes32"
        },
        {
          "internalType": "uint256",
          "name": "_projectId",
          "type": "uint256"
        }
      ],
      "name": "withdrawSubsequentStableCoins",
      "outputs": [
        {
          "internalType": "bool",
          "name": "withdrawStatus",
          "type": "bool"
        }
      ],
      "stateMutability": "nonpayable",
      "type": "function"
    },
    {
      "inputs": [
        {
          "internalType": "address",
          "name": "_founder",
          "type": "address"
        },
        {
          "internalType": "address",
          "name": "_investor",
          "type": "address"
        },
        {
          "internalType": "bytes32",
          "name": "symbol",
          "type": "bytes32"
        },
        {
          "internalType": "uint256",
          "name": "_projectId",
          "type": "uint256"
        }
      ],
      "name": "withdrawTokensByInvestor",
      "outputs": [],
      "stateMutability": "nonpayable",
      "type": "function"
    }
  ],
  "bytecode": "0x60a06040523060805234801561001457600080fd5b5060805161422361004c600039600081816115eb0152818161162e01528181611781015281816117c4015261186001526142236000f3fe608060405260043610620003b35760003560e01c806383ef0cc811620001eb578063bbe573be116200010b578063d4739b7011620000a1578063e1120b141162000078578063e1120b141462000e24578063f22838cb1462000e49578063f2fde38b1462000e93578063f3cd5d241462000eb857600080fd5b8063d4739b701462000d84578063da9f7a471462000da9578063daf00b0e1462000de857600080fd5b8063c946726e11620000e2578063c946726e1462000c97578063ca959e641462000cde578063caa7c4921462000d23578063cb0212b21462000d5f57600080fd5b8063bbe573be1462000bed578063c5258cea1462000c1e578063c89492571462000c6357600080fd5b8063a010818f1162000181578063b06b42bf1162000158578063b06b42bf1462000afa578063b17951791462000b2b578063b2b082e81462000b67578063b9ed422a1462000bb157600080fd5b8063a010818f1462000a5a578063ac630d721462000a99578063b041c8df1462000ad557600080fd5b8063902a468511620001c2578063902a468514620009c65780639661152b14620009eb5780639675c0091462000a1057806398de49a61462000a3557600080fd5b806383ef0cc8146200094457806389087f9214620009755780638da5cb5b14620009a657600080fd5b80634f1ef28611620002d757806364d59db0116200026d578063715018a61162000244578063715018a6146200086d5780637767f878146200088557806380c0e95d14620008cc5780638358f7a7146200090857600080fd5b806364d59db014620007c4578063656bd7ed14620007f557806365f982f9146200083c57600080fd5b80635421472411620002ae57806354214724146200073c57806355a373d61462000761578063566d75b31462000783578063610f825714620007a857600080fd5b80634f1ef28614620006d157806352d1902d14620006e857806353a8e344146200070057600080fd5b806329d96519116200034d578063305e04c91162000324578063305e04c914620005f75780633586932b146200063e5780633659cfe61462000678578063446a156f146200069d57600080fd5b806329d9651914620005635780632ad71cb1146200059f5780632f1c118414620005d057600080fd5b80630f5c8b88116200038e5780630f5c8b8814620004765780631c7fd22a14620004bd5780631d134d7714620004ee5780632855ed69146200052457600080fd5b80630143e72614620003b857806301f9f36114620003fa5780630e5d52021462000445575b600080fd5b348015620003c557600080fd5b50620003dd620003d73660046200376e565b62000edd565b6040516001600160a01b0390911681526020015b60405180910390f35b3480156200040757600080fd5b5062000436620004193660046200379b565b600091825260e86020908152604080842092845291905290205490565b604051908152602001620003f1565b3480156200045257600080fd5b506200043662000464366004620037be565b60ec6020526000908152604090205481565b3480156200048357600080fd5b506200043662000495366004620037f5565b600091825260e6602090815260408084206001600160a01b0393909316845291905290205490565b348015620004ca57600080fd5b5062000436620004dc366004620037be565b60ea6020526000908152604090205481565b348015620004fb57600080fd5b50620005136200050d36600462003833565b62000f23565b6040519015158152602001620003f1565b3480156200053157600080fd5b506200051362000543366004620037f5565b60ef60209081526000928352604080842090915290825290205460ff1681565b3480156200057057600080fd5b5062000436620005823660046200379b565b600091825260e76020908152604080842092845291905290205490565b348015620005ac57600080fd5b5062000436620005be36600462003891565b60cd6020526000908152604090205481565b348015620005dd57600080fd5b50620005f5620005ef366004620038af565b62001316565b005b3480156200060457600080fd5b506200043662000616366004620037f5565b600091825260e5602090815260408084206001600160a01b0393909316845291905290205490565b3480156200064b57600080fd5b50620003dd6200065d366004620037be565b600090815260c960205260409020546001600160a01b031690565b3480156200068557600080fd5b50620005f56200069736600462003891565b620015e0565b348015620006aa57600080fd5b50620006c2620006bc366004620037be565b620016cc565b604051620003f1919062003914565b620005f5620006e23660046200395f565b62001776565b348015620006f557600080fd5b506200043662001853565b3480156200070d57600080fd5b50620004366200071f366004620037f5565b60dd60209081526000928352604080842090915290825290205481565b3480156200074957600080fd5b50620005f56200075b36600462003a2d565b62001909565b3480156200076e57600080fd5b5060e054620003dd906001600160a01b031681565b3480156200079057600080fd5b50620005f5620007a236600462003a7f565b62001b4b565b348015620007b557600080fd5b5060dc54620005139060ff1681565b348015620007d157600080fd5b5062000436620007e3366004620037be565b600090815260ee602052604090205490565b3480156200080257600080fd5b506200043662000814366004620037f5565b600091825260e3602090815260408084206001600160a01b0393909316845291905290205490565b3480156200084957600080fd5b50620004366200085b366004620037be565b600090815260ec602052604090205490565b3480156200087a57600080fd5b50620005f562001e55565b3480156200089257600080fd5b5062000436620008a4366004620037f5565b600091825260ca602090815260408084206001600160a01b0393909316845291905290205490565b348015620008d957600080fd5b5062000436620008eb366004620037f5565b60e360209081526000928352604080842090915290825290205481565b3480156200091557600080fd5b506200043662000927366004620037f5565b60ca60209081526000928352604080842090915290825290205481565b3480156200095157600080fd5b506200043662000963366004620037be565b600090815260e9602052604090205490565b3480156200098257600080fd5b506200043662000994366004620037be565b60e96020526000908152604090205481565b348015620009b357600080fd5b506097546001600160a01b0316620003dd565b348015620009d357600080fd5b50620005f5620009e536600462003aa3565b62001e6d565b348015620009f857600080fd5b50620006c262000a0a3660046200379b565b6200205c565b34801562000a1d57600080fd5b50620006c262000a2f366004620037be565b62002112565b34801562000a4257600080fd5b50620005f562000a5436600462003aea565b620021b4565b34801562000a6757600080fd5b506200051362000a793660046200379b565b60f060209081526000928352604080842090915290825290205460ff1681565b34801562000aa657600080fd5b506200043662000ab8366004620037f5565b60e560209081526000928352604080842090915290825290205481565b34801562000ae257600080fd5b50620003dd62000af43660046200376e565b62002750565b34801562000b0757600080fd5b506200043662000b19366004620037be565b600090815260ea602052604090205490565b34801562000b3857600080fd5b506200043662000b4a3660046200379b565b60e760209081526000928352604080842090915290825290205481565b34801562000b7457600080fd5b506200051362000b86366004620037f5565b600091825260ef602090815260408084206001600160a01b0393909316845291905290205460ff1690565b34801562000bbe57600080fd5b506200043662000bd0366004620037f5565b60e460209081526000928352604080842090915290825290205481565b34801562000bfa57600080fd5b506200043662000c0c366004620037be565b60ee6020526000908152604090205481565b34801562000c2b57600080fd5b50620003dd62000c3d366004620037f5565b60e16020908152600092835260408084209091529082529020546001600160a01b031681565b34801562000c7057600080fd5b5062000c8862000c823660046200379b565b62002779565b604051620003f1919062003b5b565b34801562000ca457600080fd5b506200043662000cb6366004620037f5565b600091825260e4602090815260408084206001600160a01b0393909316845291905290205490565b34801562000ceb57600080fd5b50620003dd62000cfd366004620037f5565b60cb6020908152600092835260408084209091529082529020546001600160a01b031681565b34801562000d3057600080fd5b506200043662000d42366004620037f5565b60e660209081526000928352604080842090915290825290205481565b34801562000d6c57600080fd5b50620006c262000d7e3660046200379b565b620027ef565b34801562000d9157600080fd5b50620005f562000da336600462003aa3565b62002815565b34801562000db657600080fd5b506200051362000dc83660046200379b565b600091825260f06020908152604080842092845291905290205460ff1690565b34801562000df557600080fd5b506200043662000e073660046200379b565b60e860209081526000928352604080842090915290825290205481565b34801562000e3157600080fd5b5062000c8862000e433660046200379b565b62002b32565b34801562000e5657600080fd5b506200051362000e68366004620037f5565b600091825260f1602090815260408084206001600160a01b0393909316845291905290205460ff1690565b34801562000ea057600080fd5b50620005f562000eb236600462003891565b62002ba7565b34801562000ec557600080fd5b506200051362000ed736600462003baa565b62002c23565b60d8602052826000526040600020602052816000526040600020818154811062000f0657600080fd5b6000918252602090912001546001600160a01b0316925083915050565b604051632f115c0560e11b81526001600160a01b0385811660048301526000918591821690635e22b80a9060240160206040518083038186803b15801562000f6a57600080fd5b505afa15801562000f7f573d6000803e3d6000fd5b505050506040513d601f19601f8201168201806040525081019062000fa5919062003bd3565b1515600114620010105760405162461bcd60e51b815260206004820152602b60248201527f5468652061646472657373206973206e6f74207265676973746572656420617360448201526a2076616c696461746f727360a81b60648201526084015b60405180910390fd5b336001600160a01b03871614620010825760405162461bcd60e51b815260206004820152602f60248201527f54686520636f6e6e65637465642077616c6c6574206973206e6f74206120766160448201526e6c696461746f72206164647265737360881b606482015260840162001007565b600083815260da6020908152604080832087845290915290205460ff161515600114620010fc5760405162461bcd60e51b815260206004820152602160248201527f5468652073756273657175656e74206973206e6f7420796574206372656174656044820152601960fa1b606482015260840162001007565b600187151514156200114d57600083815260d76020908152604080832087845282528220805460018101825590835291200180546001600160a01b0319166001600160a01b03881617905562001193565b866200119357600083815260d86020908152604080832087845282528220805460018101825590835291200180546001600160a01b0319166001600160a01b0388161790555b600083815260d76020908152604080832087845290915290205460031162001201576040805180820182526008815267105c1c1c9bdd995960c21b6020808301918252600087815260d98252848120898252909152929092209051620011fa92906200361f565b50620012b3565b600083815260d860209081526040808320878452909152902054600311620012b357604080518082018252600881526714995a9958dd195960c21b6020808301918252600087815260d982528481208982529091529290922090516200126892906200361f565b50600083815260d86020908152604080832087845290915290205460031415620012b357600083815260ec60205260408120805460019290620012ad90849062003c09565b90915550505b600083815260ec60205260409020546003116200130957604080518082018252600881526714995a9958dd195960c21b6020808301918252600087815260ed9091529290922090516200130792906200361f565b505b5060019695505050505050565b336001600160a01b03841614620013665760405162461bcd60e51b81526020600482015260136024820152723cb7ba9030b932903737ba103337bab73232b960691b604482015260640162001007565b60d3805460018101825560009182527f915c3eb987b20e1af620c1403197bf687fb7f18513b3a73fde6e78c7072c41a6018390555b60d354620013ac9060019062003c24565b8110156200140c578260d38281548110620013cb57620013cb62003c3e565b90600052602060002001541415620013f75760405162461bcd60e51b8152600401620010079062003c54565b80620014038162003ca4565b9150506200139b565b600082815260cc602090815260408083206001015460ce83528184206001600160a01b03891685529092529091205462001447919062003cc2565b600083815260d66020908152604080832087845282528083209390935584825260de90522080546200147c9160d591620036ae565b50620014a260405180606001604052806000815260200160008152602001606081525090565b60408051606081018252858152600085815260d66020908152838220888352815290839020548183015260d5805484518184028101840186528181529394850193928301828280156200151f57602002820191906000526020600020905b81546001600160a01b0316815260019091019060200180831162001500575b505050919092525050600084815260d4602090815260408083206001600160a01b038a1684528252808320805460018181018355918552938390208551600390950201938455828501519084015583015180519394508493620015899260028501920190620036f1565b505050600083815260da602090815260408083208784528252808320805460ff1916600117905585835260d6825280832087845282528083205495835260e882528083209683529590529390932091909155505050565b306001600160a01b037f00000000000000000000000000000000000000000000000000000000000000001614156200162c5760405162461bcd60e51b8152600401620010079062003ce5565b7f00000000000000000000000000000000000000000000000000000000000000006001600160a01b031662001677600080516020620041a7833981519152546001600160a01b031690565b6001600160a01b031614620016a05760405162461bcd60e51b8152600401620010079062003d31565b620016ab816200318c565b60408051600080825260208201909252620016c99183919062003196565b50565b600081815260ed60205260409020805460609190620016eb9062003d7d565b80601f0160208091040260200160405190810160405280929190818152602001828054620017199062003d7d565b80156200176a5780601f106200173e576101008083540402835291602001916200176a565b820191906000526020600020905b8154815290600101906020018083116200174c57829003601f168201915b50505050509050919050565b306001600160a01b037f0000000000000000000000000000000000000000000000000000000000000000161415620017c25760405162461bcd60e51b8152600401620010079062003ce5565b7f00000000000000000000000000000000000000000000000000000000000000006001600160a01b03166200180d600080516020620041a7833981519152546001600160a01b031690565b6001600160a01b031614620018365760405162461bcd60e51b8152600401620010079062003d31565b62001841826200318c565b6200184f8282600162003196565b5050565b6000306001600160a01b037f00000000000000000000000000000000000000000000000000000000000000001614620018f55760405162461bcd60e51b815260206004820152603860248201527f555550535570677261646561626c653a206d757374206e6f742062652063616c60448201527f6c6564207468726f7567682064656c656761746563616c6c0000000000000000606482015260840162001007565b50600080516020620041a783398151915290565b336001600160a01b03861614620019345760405162461bcd60e51b8152600401620010079062003dba565b6001600160a01b038516600090815260cd60205260409020548214620019b85760405162461bcd60e51b815260206004820152603260248201527f54686520666f756e6465722061646472657373206973206e6f74206d617463686044820152711959081dda5d1a081c1c9bda9958dd081a5960721b606482015260840162001007565b60d2805460018101825560009182527ff2192e1030363415d7b4fb0406540a0060e8e2fc8982f3f32289379e11fa6546018490555b60d254620019fe9060019062003c24565b81101562001a5e578360d2828154811062001a1d5762001a1d62003c3e565b9060005260206000200154141562001a495760405162461bcd60e51b8152600401620010079062003c54565b8062001a558162003ca4565b915050620019ed565b5060408051808201825260008082526020918201819052825180840184528681526001600160a01b0397881681840181815287845260d185528584209a8a168085529a8552858420805460018082018355918652868620945160029182029095019485559151938101805494909b166001600160a01b031994851617909a5581845260cf80865286852089865286528685208a9055898552868520909a0187905599835297835283822087835283528382208901805482168917905560d08352838220958252948252828120909701805490941690951790925560e7845281852092855291909252912055565b336001600160a01b0385161462001bb85760405162461bcd60e51b815260206004820152602a60248201527f54686520636f6e6e65637465642077616c6c6574206973206e6f7420666f756e60448201526919195c881dd85b1b195d60b21b606482015260840162001007565b6040516360f0712b60e11b81526001600160a01b03858116600483015286919082169063c1e0e2569060240160206040518083038186803b15801562001bfd57600080fd5b505afa15801562001c12573d6000803e3d6000fd5b505050506040513d601f19601f8201168201806040525081019062001c38919062003bd3565b15156001141562001df257600082815260e1602090815260408083206001600160a01b038089168086529184528285205488865260c985528386205488875260ca865284872093875292909452938290205491516323b872dd60e01b81529284169316916323b872dd9162001cb49185918b9160040162003e06565b602060405180830381600087803b15801562001ccf57600080fd5b505af115801562001ce4573d6000803e3d6000fd5b505050506040513d601f19601f8201168201806040525081019062001d0a919062003bd3565b50600083815260ca602090815260408083206001600160a01b0389168085529083528184205487855260e584528285209185529252822080549192909162001d5490849062003c24565b9091555050600083815260ca602090815260408083206001600160a01b03808a1685529083528184205487855260e68452828520918b1685529252822080549192909162001da490849062003c09565b909155505050600082815260ef602090815260408083206001600160a01b038816808552908352818420805460ff1916600117905585845260ca835281842090845290915281205562001e4d565b60405162461bcd60e51b815260206004820152602960248201527f54686520666f756e6465722061646472657373206973206e6f742072656769736044820152681d195c9959081e595d60ba1b606482015260840162001007565b505050505050565b62001e5f62003323565b62001e6b60006200337f565b565b336001600160a01b0384161462001ee35760405162461bcd60e51b815260206004820152603360248201527f54686520636f6e6e65637465642077616c6c657420616e642074686520666f756044820152726e646572206973206d69736d61746368696e6760681b606482015260840162001007565b6040516360f0712b60e11b81526001600160a01b03848116600483015285919082169063c1e0e2569060240160206040518083038186803b15801562001f2857600080fd5b505afa15801562001f3d573d6000803e3d6000fd5b505050506040513d601f19601f8201168201806040525081019062001f63919062003bd3565b15156001141562001fed576001600160a01b038416600090815260cd6020908152604080832086905585835260cc825280832060010185905560e9825280832085905560ea82528083208590558051808201825260088152674f6e20676f696e6760c01b81840190815287855260ed9093529220915162001fe69291906200361f565b5062002055565b60405162461bcd60e51b815260206004820152603660248201527f5468652061646472657373206973206e6f74207265676973746572656420696e604482015275081d1a1948199bdd5b99195c9cc818dbdb9d1c9858dd60521b606482015260840162001007565b5050505050565b600082815260d9602090815260408083208484529091529020805460609190620020869062003d7d565b80601f0160208091040260200160405190810160405280929190818152602001828054620020b49062003d7d565b8015620021055780601f10620020d95761010080835404028352916020019162002105565b820191906000526020600020905b815481529060010190602001808311620020e757829003601f168201915b5050505050905092915050565b60ed60205260009081526040902080546200212d9062003d7d565b80601f01602080910402602001604051908101604052809291908181526020018280546200215b9062003d7d565b8015620021ac5780601f106200218057610100808354040283529160200191620021ac565b820191906000526020600020905b8154815290600101906020018083116200218e57829003601f168201915b505050505081565b336001600160a01b038816146200221a5760405162461bcd60e51b8152602060048201526024808201527f54686520636f6e6e65637465642077616c6c6574206973206e6f74206d61746360448201526368696e6760e01b606482015260840162001007565b6001600160a01b038716600090815260cf602090815260408083208584529091529020600101548514620022ad5760405162461bcd60e51b815260206004820152603360248201527f54686520616d6f756e742069732061206d69736d61746368696e67206f72206960448201527264277320617265206d69736d61746368696e6760681b606482015260840162001007565b600082815260d0602090815260408083208484529091529020600201546001600160a01b038881169116146200234c5760405162461bcd60e51b815260206004820152603760248201527f54686520696e766573746f72206973206e6f74206c696e6b656420746f20746860448201527f6520666f756e64657220616e6420696e697469616c4964000000000000000000606482015260840162001007565b60e080546001600160a01b0319166001600160a01b0385161790556040516000908890839088903090620023809062003749565b6001600160a01b039485168152602081019390935260408301919091529091166060820152608001604051809103906000f080158015620023c5573d6000803e3d6000fd5b50600086815260c96020908152604080832080546001600160a01b038a81166001600160a01b031992831617835588865260e185528386208f821687529094529382902080548685169516851790555490516323b872dd60e01b815293945016916323b872dd916200243f918c91908b9060040162003e06565b602060405180830381600087803b1580156200245a57600080fd5b505af11580156200246f573d6000803e3d6000fd5b505050506040513d601f19601f8201168201806040525081019062002495919062003bd3565b50600082815260cb602090815260408083206001600160a01b03808d1680865291845282852080546001600160a01b0319908116331790915587865260de855283862080546001818101835591885286882001805483168517905560df805491820190557f65e3d48fa860a761b461ce1274f0d562f3db9a6a57cf04d8c90d68f5670b6aea0180549091168317905586855260dd84528285209185529083528184208a905585845260e38352818420908b168452909152812080548892906200256090849062003c09565b9091555050600082815260e4602090815260408083206001600160a01b038c168452909152812080548892906200259990849062003c09565b9091555050600082815260e5602090815260408083206001600160a01b038c16845290915281208054889290620025d290849062003c09565b90915550600090506064620025e988600a62003e2a565b620025f5919062003cc2565b600084815260ca602090815260408083206001600160a01b038e1684529091528120805492935083929091906200262e90849062003c09565b9091555050600083815260f1602090815260408083206001600160a01b038d16808552908352818420805460ff1916600117905586845260ca835281842081855283528184205487855260dd8452828520918552925282208054919290916200269990849062003c24565b9091555050600083815260ca602090815260408083206001600160a01b03808e168086529184528285205460cf85528386208a875285528386206003015587855260dd84528285209185529083528184205487855260ce8452828520918d168552925282208054919290916200271190849062003c09565b909155505050600082815260ce602090815260408083206001600160a01b03909a1683529881528882205493825260ee90529690962055505050505050565b60d7602052826000526040600020602052816000526040600020818154811062000f0657600080fd5b600082815260d7602090815260408083208484528252918290208054835181840281018401909452808452606093928301828280156200210557602002820191906000526020600020905b81546001600160a01b03168152600190910190602001808311620027c4575050505050905092915050565b60eb602090815260009283526040808420909152908252902080546200212d9062003d7d565b336001600160a01b03841614620028835760405162461bcd60e51b815260206004820152602b60248201527f54686520636f6e6e65637465642077616c6c6574206973206e6f7420696e766560448201526a1cdd1bdc881dd85b1b195d60aa1b606482015260840162001007565b600081815260cb602090815260408083206001600160a01b038781168552925290912054163314620029105760405162461bcd60e51b815260206004820152602f60248201527f696e766573746f722061646472657373206973206d69736d617463682077697460448201526e1a081cdd589cd95c5d595b9d081a59608a1b606482015260840162001007565b600081815260ec602052604090205460031162002ae357600081815260e1602090815260408083206001600160a01b038088168086529184528285205487865260c985528386205487875260dd865284872093875292909452938290205491516323b872dd60e01b81529284169316916323b872dd9162002998918591899160040162003e06565b602060405180830381600087803b158015620029b357600080fd5b505af1158015620029c8573d6000803e3d6000fd5b505050506040513d601f19601f82011682018060405250810190620029ee919062003bd3565b50600082815260dd602090815260408083206001600160a01b0380891685529083528184205486855260ce8452828520918a1685529252822080549192909162002a3a90849062003c24565b9091555050600082815260ce602090815260408083206001600160a01b03808a1685529083528184205486855260ee84528285205560dd83528184209088168085529083528184205486855260e584528285209185529252822080549192909162002aa790849062003c24565b909155505050600081815260dd602090815260408083206001600160a01b038716845290915281205560dc805460ff1916600117905562002b2c565b60405162461bcd60e51b815260206004820152601d60248201527f5468652070726f6a65637420686173206e6f7420656e64656420796574000000604482015260640162001007565b50505050565b600082815260d86020908152604080832084845282529182902080548351818402810184019094528084526060939283018282801562002105576020028201919060005260206000209081546001600160a01b03168152600190910190602001808311620027c4575050505050905092915050565b62002bb162003323565b6001600160a01b03811662002c185760405162461bcd60e51b815260206004820152602660248201527f4f776e61626c653a206e6577206f776e657220697320746865207a65726f206160448201526564647265737360d01b606482015260840162001007565b620016c9816200337f565b6000336001600160a01b0385161462002c505760405162461bcd60e51b8152600401620010079062003dba565b600082815260ec602052604090205460031162002ce15760405162461bcd60e51b815260206004820152604260248201527f5468652070726f6a65637420697320636c6f7365642c2064756520746f20746860448201527f7265652073756273657175656e63652076616c69646174696f6e206661696c75606482015261726560f01b608482015260a40162001007565b600082815260d76020908152604080832088845290915290205460031180159062002d3057506001600160a01b038416600090815260e26020908152604080832088845290915290205460ff16155b15620031265760005b600083815260d1602090815260408083206001600160a01b038916845290915290205481101562002f8a57600083815260d1602090815260408083206001600160a01b0389168452909152812080548390811062002d9b5762002d9b62003c3e565b600091825260208083206001600290930201919091015486835260dd825260408084206001600160a01b039283168086529084528185205489865260ce8552828620938c1686529284528185205489865260d685528286208d875290945290842054909450909290829062002e11908562003e2a565b62002e1d919062003cc2565b600088815260e1602090815260408083206001600160a01b03808a168552908352818420548c855260ea90935290832054939450169162002e5f908662003cc2565b60008b815260c96020526040908190205490516323b872dd60e01b81529192506001600160a01b0316906323b872dd9062002ea39085908f90869060040162003e06565b602060405180830381600087803b15801562002ebe57600080fd5b505af115801562002ed3573d6000803e3d6000fd5b505050506040513d601f19601f8201168201806040525081019062002ef9919062003bd3565b50600089815260dd602090815260408083206001600160a01b038a1684529091528120805485929062002f2e90849062003c24565b9091555050600089815260e5602090815260408083206001600160a01b038a1684529091528120805485929062002f6790849062003c24565b92505081905550505050505050808062002f819062003ca4565b91505062002d39565b6001600160a01b038516600081815260e2602090815260408083208a84528252808320805460ff1916600117905586835260d682528083208a845282528083205487845260ce8352818420948452939091528120805490919062002ff090849062003c24565b9091555050600083815260d66020908152604080832089845282528083205486845260e683528184206001600160a01b038a16855290925282208054919290916200303d90849062003c09565b9091555050600083815260cc6020526040812060019081018054919290916200306890849062003c24565b9091555050600083815260cc60208181526040808420600101805460ea84528286205560ce83528185206001600160a01b038b16865283528185205488865260ee845291909420555254620030f757604080518082018252600981526810dbdb5c1b195d195960ba1b6020808301918252600087815260ed909152929092209051620030f592906200361f565b505b5050600081815260f0602090815260408083208784529091529020805460ff1916600190811790915562003184565b60405162461bcd60e51b815260206004820152602c60248201527f5468652077697468647261776c206973206e6f7420706f737369626c6520627960448201526b103a3432903337bab73232b960a11b606482015260840162001007565b949350505050565b620016c962003323565b7f4910fdfa16fed3260ed0e7147f7cc6da11a60208b5b9406d12a635614ffd91435460ff1615620031d157620031cc83620033d1565b505050565b826001600160a01b03166352d1902d6040518163ffffffff1660e01b815260040160206040518083038186803b1580156200320b57600080fd5b505afa9250505080156200323e575060408051601f3d908101601f191682019092526200323b9181019062003e4c565b60015b620032a35760405162461bcd60e51b815260206004820152602e60248201527f45524331393637557067726164653a206e657720696d706c656d656e7461746960448201526d6f6e206973206e6f74205555505360901b606482015260840162001007565b600080516020620041a78339815191528114620033155760405162461bcd60e51b815260206004820152602960248201527f45524331393637557067726164653a20756e737570706f727465642070726f786044820152681a58589b195555525160ba1b606482015260840162001007565b50620031cc83838362003470565b6097546001600160a01b0316331462001e6b5760405162461bcd60e51b815260206004820181905260248201527f4f776e61626c653a2063616c6c6572206973206e6f7420746865206f776e6572604482015260640162001007565b609780546001600160a01b038381166001600160a01b0319831681179093556040519116919082907f8be0079c531659141344cd1fd0a4f28419497f9722a3daafe3b4186f6b6457e090600090a35050565b6001600160a01b0381163b620034405760405162461bcd60e51b815260206004820152602d60248201527f455243313936373a206e657720696d706c656d656e746174696f6e206973206e60448201526c1bdd08184818dbdb9d1c9858dd609a1b606482015260840162001007565b600080516020620041a783398151915280546001600160a01b0319166001600160a01b0392909216919091179055565b6200347b836200349b565b600082511180620034895750805b15620031cc5762002b2c8383620034dd565b620034a681620033d1565b6040516001600160a01b038216907fbc7cd75a20ee27fd9adebab32041f755214dbc6bffa90cc0225b39da2e5c2d3b90600090a250565b60606001600160a01b0383163b620035475760405162461bcd60e51b815260206004820152602660248201527f416464726573733a2064656c65676174652063616c6c20746f206e6f6e2d636f6044820152651b9d1c9858dd60d21b606482015260840162001007565b600080846001600160a01b03168460405162003564919062003e66565b600060405180830381855af49150503d8060008114620035a1576040519150601f19603f3d011682016040523d82523d6000602084013e620035a6565b606091505b5091509150620035d18282604051806060016040528060278152602001620041c760279139620035da565b95945050505050565b60608315620035eb57508162003618565b825115620035fc5782518084602001fd5b8160405162461bcd60e51b815260040162001007919062003914565b9392505050565b8280546200362d9062003d7d565b90600052602060002090601f0160209004810192826200365157600085556200369c565b82601f106200366c57805160ff19168380011785556200369c565b828001600101855582156200369c579182015b828111156200369c5782518255916020019190600101906200367f565b50620036aa92915062003757565b5090565b8280548282559060005260206000209081019282156200369c5760005260206000209182015b828111156200369c578254825591600101919060010190620036d4565b8280548282559060005260206000209081019282156200369c579160200282015b828111156200369c57825182546001600160a01b0319166001600160a01b0390911617825560209092019160019091019062003712565b6103228062003e8583390190565b5b80821115620036aa576000815560010162003758565b6000806000606084860312156200378457600080fd5b505081359360208301359350604090920135919050565b60008060408385031215620037af57600080fd5b50508035926020909101359150565b600060208284031215620037d157600080fd5b5035919050565b80356001600160a01b0381168114620037f057600080fd5b919050565b600080604083850312156200380957600080fd5b823591506200381b60208401620037d8565b90509250929050565b8015158114620016c957600080fd5b600080600080600060a086880312156200384c57600080fd5b8535620038598162003824565b94506200386960208701620037d8565b93506200387960408701620037d8565b94979396509394606081013594506080013592915050565b600060208284031215620038a457600080fd5b6200361882620037d8565b600080600060608486031215620038c557600080fd5b620038d084620037d8565b95602085013595506040909401359392505050565b60005b8381101562003902578181015183820152602001620038e8565b8381111562002b2c5750506000910152565b602081526000825180602084015262003935816040850160208701620038e5565b601f01601f19169190910160400192915050565b634e487b7160e01b600052604160045260246000fd5b600080604083850312156200397357600080fd5b6200397e83620037d8565b9150602083013567ffffffffffffffff808211156200399c57600080fd5b818501915085601f830112620039b157600080fd5b813581811115620039c657620039c662003949565b604051601f8201601f19908116603f01168101908382118183101715620039f157620039f162003949565b8160405282815288602084870101111562003a0b57600080fd5b8260208601602083013760006020848301015280955050505050509250929050565b600080600080600060a0868803121562003a4657600080fd5b62003a5186620037d8565b945062003a6160208701620037d8565b94979496505050506040830135926060810135926080909101359150565b600080600080600060a0868803121562003a9857600080fd5b6200385986620037d8565b6000806000806080858703121562003aba57600080fd5b62003ac585620037d8565b935062003ad560208601620037d8565b93969395505050506040820135916060013590565b600080600080600080600060e0888a03121562003b0657600080fd5b62003b1188620037d8565b965062003b2160208901620037d8565b9550604088013594506060880135935062003b3f60808901620037d8565b925060a0880135915060c0880135905092959891949750929550565b6020808252825182820181905260009190848201906040850190845b8181101562003b9e5783516001600160a01b03168352928401929184019160010162003b77565b50909695505050505050565b6000806000806080858703121562003bc157600080fd5b8435935062003ad560208601620037d8565b60006020828403121562003be657600080fd5b8151620036188162003824565b634e487b7160e01b600052601160045260246000fd5b6000821982111562003c1f5762003c1f62003bf3565b500190565b60008282101562003c395762003c3962003bf3565b500390565b634e487b7160e01b600052603260045260246000fd5b60208082526030908201527f54686520696420697320616c72656164792074616b656e2c20706c656173652060408201526f1d5cd948191a5999995c995b9d081a5960821b606082015260800190565b600060001982141562003cbb5762003cbb62003bf3565b5060010190565b60008262003ce057634e487b7160e01b600052601260045260246000fd5b500490565b6020808252602c908201527f46756e6374696f6e206d7573742062652063616c6c6564207468726f7567682060408201526b19195b1959d85d1958d85b1b60a21b606082015260800190565b6020808252602c908201527f46756e6374696f6e206d7573742062652063616c6c6564207468726f7567682060408201526b6163746976652070726f787960a01b606082015260800190565b600181811c9082168062003d9257607f821691505b6020821081141562003db457634e487b7160e01b600052602260045260246000fd5b50919050565b6020808252602c908201527f54686520636f6e6e65637465642077616c6c6574206973206e6f74206120666f60408201526b1d5b99195c881dd85b1b195d60a21b606082015260800190565b6001600160a01b039384168152919092166020820152604081019190915260600190565b600081600019048311821515161562003e475762003e4762003bf3565b500290565b60006020828403121562003e5f57600080fd5b5051919050565b6000825162003e7a818460208701620038e5565b919091019291505056fe608060405234801561001057600080fd5b5060405161032238038061032283398101604081905261002f9161017e565b600080546001600160a01b031916331781558381526001602090815260408083206001600160a01b038881168552908352928190208590558051632ad1b9eb60e11b81529051928416926355a373d692600480840193919291829003018186803b15801561009c57600080fd5b505afa1580156100b0573d6000803e3d6000fd5b505050506040513d601f19601f820116820180604052508101906100d491906101c4565b60405163095ea7b360e01b81526001600160a01b03838116600483015260248201859052919091169063095ea7b390604401602060405180830381600087803b15801561012057600080fd5b505af1158015610134573d6000803e3d6000fd5b505050506040513d601f19601f8201168201806040525081019061015891906101e6565b5050505050610208565b80516001600160a01b038116811461017957600080fd5b919050565b6000806000806080858703121561019457600080fd5b61019d85610162565b935060208501519250604085015191506101b960608601610162565b905092959194509250565b6000602082840312156101d657600080fd5b6101df82610162565b9392505050565b6000602082840312156101f857600080fd5b815180151581146101df57600080fd5b61010b806102176000396000f3fe6080604052348015600f57600080fd5b506004361060325760003560e01c80632bb3b114146037578063a7b5d614146066575b600080fd5b6000546049906001600160a01b031681565b6040516001600160a01b0390911681526020015b60405180910390f35b608e6071366004609b565b600160209081526000928352604080842090915290825290205481565b604051908152602001605d565b6000806040838503121560ad57600080fd5b8235915060208301356001600160a01b038116811460ca57600080fd5b80915050925092905056fea2646970667358221220660a31ced64cc5568f1183deb765361823c3034daa7f7d1c743a8a59b8eee41464736f6c63430008090033360894a13ba1a3210667c828492db98dca3e2076cc3735a920a3ca505d382bbc416464726573733a206c6f772d6c6576656c2064656c65676174652063616c6c206661696c6564a2646970667358221220f61e9b1664b1d1ea91389b6519ebc359159185eca9bbc450056dc202da4acac364736f6c63430008090033",
  "linkReferences": {},
  "deployedLinkReferences": {}
}