{
  "_format": "hh-sol-artifact-1",
  "contractName": "InvestorLogin",
  "sourceName": "contracts/InvestorLogin.sol",
  "abi": [
    {
      "anonymous": false,
      "inputs": [
        {
          "indexed": false,
          "internalType": "address",
          "name": "previousAdmin",
          "type": "address"
        },
        {
          "indexed": false,
          "internalType": "address",
          "name": "newAdmin",
          "type": "address"
        }
      ],
      "name": "AdminChanged",
      "type": "event"
    },
    {
      "anonymous": false,
      "inputs": [
        {
          "indexed": true,
          "internalType": "address",
          "name": "beacon",
          "type": "address"
        }
      ],
      "name": "BeaconUpgraded",
      "type": "event"
    },
    {
      "anonymous": false,
      "inputs": [
        {
          "indexed": false,
          "internalType": "uint8",
          "name": "version",
          "type": "uint8"
        }
      ],
      "name": "Initialized",
      "type": "event"
    },
    {
      "anonymous": false,
      "inputs": [
        {
          "indexed": true,
          "internalType": "address",
          "name": "previousOwner",
          "type": "address"
        },
        {
          "indexed": true,
          "internalType": "address",
          "name": "newOwner",
          "type": "address"
        }
      ],
      "name": "OwnershipTransferred",
      "type": "event"
    },
    {
      "anonymous": false,
      "inputs": [
        {
          "indexed": true,
          "internalType": "address",
          "name": "implementation",
          "type": "address"
        }
      ],
      "name": "Upgraded",
      "type": "event"
    },
    {
      "inputs": [
        {
          "internalType": "address",
          "name": "_ad",
          "type": "address"
        }
      ],
      "name": "addInvestor",
      "outputs": [],
      "stateMutability": "nonpayable",
      "type": "function"
    },
    {
      "inputs": [],
      "name": "getAllInvestorAddress",
      "outputs": [
        {
          "internalType": "address[]",
          "name": "",
          "type": "address[]"
        }
      ],
      "stateMutability": "view",
      "type": "function"
    },
    {
      "inputs": [],
      "name": "owner",
      "outputs": [
        {
          "internalType": "address",
          "name": "",
          "type": "address"
        }
      ],
      "stateMutability": "view",
      "type": "function"
    },
    {
      "inputs": [],
      "name": "proxiableUUID",
      "outputs": [
        {
          "internalType": "bytes32",
          "name": "",
          "type": "bytes32"
        }
      ],
      "stateMutability": "view",
      "type": "function"
    },
    {
      "inputs": [],
      "name": "renounceOwnership",
      "outputs": [],
      "stateMutability": "nonpayable",
      "type": "function"
    },
    {
      "inputs": [
        {
          "internalType": "address",
          "name": "newOwner",
          "type": "address"
        }
      ],
      "name": "transferOwnership",
      "outputs": [],
      "stateMutability": "nonpayable",
      "type": "function"
    },
    {
      "inputs": [
        {
          "internalType": "address",
          "name": "newImplementation",
          "type": "address"
        }
      ],
      "name": "upgradeTo",
      "outputs": [],
      "stateMutability": "nonpayable",
      "type": "function"
    },
    {
      "inputs": [
        {
          "internalType": "address",
          "name": "newImplementation",
          "type": "address"
        },
        {
          "internalType": "bytes",
          "name": "data",
          "type": "bytes"
        }
      ],
      "name": "upgradeToAndCall",
      "outputs": [],
      "stateMutability": "payable",
      "type": "function"
    },
    {
      "inputs": [
        {
          "internalType": "address",
          "name": "_ad",
          "type": "address"
        }
      ],
      "name": "verifyInvestor",
      "outputs": [
        {
          "internalType": "bool",
          "name": "condition",
          "type": "bool"
        }
      ],
      "stateMutability": "view",
      "type": "function"
    }
  ],
  "bytecode": "0x60a06040523060805234801561001457600080fd5b50608051610d8e61004c600039600081816101c20152818161020b015281816102ab015281816102eb015261037e0152610d8e6000f3fe6080604052600436106100865760003560e01c80638da5cb5b116100595780638da5cb5b146100fd578063d84dbdc314610125578063e641bde114610155578063f2fde38b14610175578063f4630c861461019557600080fd5b80633659cfe61461008b5780634f1ef286146100ad57806352d1902d146100c0578063715018a6146100e8575b600080fd5b34801561009757600080fd5b506100ab6100a6366004610aa5565b6101b7565b005b6100ab6100bb366004610ad6565b6102a0565b3480156100cc57600080fd5b506100d5610371565b6040519081526020015b60405180910390f35b3480156100f457600080fd5b506100ab610424565b34801561010957600080fd5b506097546040516001600160a01b0390911681526020016100df565b34801561013157600080fd5b50610145610140366004610aa5565b610438565b60405190151581526020016100df565b34801561016157600080fd5b506100ab610170366004610aa5565b610473565b34801561018157600080fd5b506100ab610190366004610aa5565b610548565b3480156101a157600080fd5b506101aa6105be565b6040516100df9190610b98565b306001600160a01b037f00000000000000000000000000000000000000000000000000000000000000001614156102095760405162461bcd60e51b815260040161020090610be5565b60405180910390fd5b7f00000000000000000000000000000000000000000000000000000000000000006001600160a01b0316610252600080516020610d12833981519152546001600160a01b031690565b6001600160a01b0316146102785760405162461bcd60e51b815260040161020090610c31565b61028181610620565b6040805160008082526020820190925261029d91839190610628565b50565b306001600160a01b037f00000000000000000000000000000000000000000000000000000000000000001614156102e95760405162461bcd60e51b815260040161020090610be5565b7f00000000000000000000000000000000000000000000000000000000000000006001600160a01b0316610332600080516020610d12833981519152546001600160a01b031690565b6001600160a01b0316146103585760405162461bcd60e51b815260040161020090610c31565b61036182610620565b61036d82826001610628565b5050565b6000306001600160a01b037f000000000000000000000000000000000000000000000000000000000000000016146104115760405162461bcd60e51b815260206004820152603860248201527f555550535570677261646561626c653a206d757374206e6f742062652063616c60448201527f6c6564207468726f7567682064656c656761746563616c6c00000000000000006064820152608401610200565b50600080516020610d1283398151915290565b61042c6107a7565b6104366000610801565b565b6001600160a01b038116600090815260c9602052604081205460ff1615156001141561046657506001919050565b506000919050565b919050565b336001600160a01b038216146104e25760405162461bcd60e51b815260206004820152602e60248201527f436f6e6e6563742073616d652077616c6c657420746f206164642027496e766560448201526d039ba37b91030b2323932b9b993960951b6064820152608401610200565b6001600160a01b0316600081815260c960205260408120805460ff1916600190811790915560ca805491820181559091527f42d72674974f694b5f5159593243114d38a5c39c89d6b62fee061ff523240ee10180546001600160a01b0319169091179055565b6105506107a7565b6001600160a01b0381166105b55760405162461bcd60e51b815260206004820152602660248201527f4f776e61626c653a206e6577206f776e657220697320746865207a65726f206160448201526564647265737360d01b6064820152608401610200565b61029d81610801565b606060ca80548060200260200160405190810160405280929190818152602001828054801561061657602002820191906000526020600020905b81546001600160a01b031681526001909101906020018083116105f8575b5050505050905090565b61029d6107a7565b7f4910fdfa16fed3260ed0e7147f7cc6da11a60208b5b9406d12a635614ffd91435460ff16156106605761065b83610853565b505050565b826001600160a01b03166352d1902d6040518163ffffffff1660e01b815260040160206040518083038186803b15801561069957600080fd5b505afa9250505080156106c9575060408051601f3d908101601f191682019092526106c691810190610c7d565b60015b61072c5760405162461bcd60e51b815260206004820152602e60248201527f45524331393637557067726164653a206e657720696d706c656d656e7461746960448201526d6f6e206973206e6f74205555505360901b6064820152608401610200565b600080516020610d12833981519152811461079b5760405162461bcd60e51b815260206004820152602960248201527f45524331393637557067726164653a20756e737570706f727465642070726f786044820152681a58589b195555525160ba1b6064820152608401610200565b5061065b8383836108ef565b6097546001600160a01b031633146104365760405162461bcd60e51b815260206004820181905260248201527f4f776e61626c653a2063616c6c6572206973206e6f7420746865206f776e65726044820152606401610200565b609780546001600160a01b038381166001600160a01b0319831681179093556040519116919082907f8be0079c531659141344cd1fd0a4f28419497f9722a3daafe3b4186f6b6457e090600090a35050565b6001600160a01b0381163b6108c05760405162461bcd60e51b815260206004820152602d60248201527f455243313936373a206e657720696d706c656d656e746174696f6e206973206e60448201526c1bdd08184818dbdb9d1c9858dd609a1b6064820152608401610200565b600080516020610d1283398151915280546001600160a01b0319166001600160a01b0392909216919091179055565b6108f88361091a565b6000825111806109055750805b1561065b57610914838361095a565b50505050565b61092381610853565b6040516001600160a01b038216907fbc7cd75a20ee27fd9adebab32041f755214dbc6bffa90cc0225b39da2e5c2d3b90600090a250565b60606001600160a01b0383163b6109c25760405162461bcd60e51b815260206004820152602660248201527f416464726573733a2064656c65676174652063616c6c20746f206e6f6e2d636f6044820152651b9d1c9858dd60d21b6064820152608401610200565b600080846001600160a01b0316846040516109dd9190610cc2565b600060405180830381855af49150503d8060008114610a18576040519150601f19603f3d011682016040523d82523d6000602084013e610a1d565b606091505b5091509150610a458282604051806060016040528060278152602001610d3260279139610a4e565b95945050505050565b60608315610a5d575081610a87565b825115610a6d5782518084602001fd5b8160405162461bcd60e51b81526004016102009190610cde565b9392505050565b80356001600160a01b038116811461046e57600080fd5b600060208284031215610ab757600080fd5b610a8782610a8e565b634e487b7160e01b600052604160045260246000fd5b60008060408385031215610ae957600080fd5b610af283610a8e565b9150602083013567ffffffffffffffff80821115610b0f57600080fd5b818501915085601f830112610b2357600080fd5b813581811115610b3557610b35610ac0565b604051601f8201601f19908116603f01168101908382118183101715610b5d57610b5d610ac0565b81604052828152886020848701011115610b7657600080fd5b8260208601602083013760006020848301015280955050505050509250929050565b6020808252825182820181905260009190848201906040850190845b81811015610bd95783516001600160a01b031683529284019291840191600101610bb4565b50909695505050505050565b6020808252602c908201527f46756e6374696f6e206d7573742062652063616c6c6564207468726f7567682060408201526b19195b1959d85d1958d85b1b60a21b606082015260800190565b6020808252602c908201527f46756e6374696f6e206d7573742062652063616c6c6564207468726f7567682060408201526b6163746976652070726f787960a01b606082015260800190565b600060208284031215610c8f57600080fd5b5051919050565b60005b83811015610cb1578181015183820152602001610c99565b838111156109145750506000910152565b60008251610cd4818460208701610c96565b9190910192915050565b6020815260008251806020840152610cfd816040850160208701610c96565b601f01601f1916919091016040019291505056fe360894a13ba1a3210667c828492db98dca3e2076cc3735a920a3ca505d382bbc416464726573733a206c6f772d6c6576656c2064656c65676174652063616c6c206661696c6564a2646970667358221220cc8b73b8e9730002adb328a3b3c9c5cffe63ec293f99253b003620d4834aee7664736f6c63430008090033",
  "linkReferences": {},
  "deployedLinkReferences": {}
}