{
  "_format": "hh-sol-artifact-1",
  "contractName": "Vesting",
  "sourceName": "contracts/Vesting.sol",
  "abi": [
    {
      "anonymous": false,
      "inputs": [
        {
          "indexed": false,
          "internalType": "address",
          "name": "previousAdmin",
          "type": "address"
        },
        {
          "indexed": false,
          "internalType": "address",
          "name": "newAdmin",
          "type": "address"
        }
      ],
      "name": "AdminChanged",
      "type": "event"
    },
    {
      "anonymous": false,
      "inputs": [
        {
          "indexed": true,
          "internalType": "address",
          "name": "beacon",
          "type": "address"
        }
      ],
      "name": "BeaconUpgraded",
      "type": "event"
    },
    {
      "anonymous": false,
      "inputs": [
        {
          "indexed": false,
          "internalType": "uint8",
          "name": "version",
          "type": "uint8"
        }
      ],
      "name": "Initialized",
      "type": "event"
    },
    {
      "anonymous": false,
      "inputs": [
        {
          "indexed": true,
          "internalType": "address",
          "name": "previousOwner",
          "type": "address"
        },
        {
          "indexed": true,
          "internalType": "address",
          "name": "newOwner",
          "type": "address"
        }
      ],
      "name": "OwnershipTransferred",
      "type": "event"
    },
    {
      "anonymous": false,
      "inputs": [
        {
          "indexed": true,
          "internalType": "address",
          "name": "implementation",
          "type": "address"
        }
      ],
      "name": "Upgraded",
      "type": "event"
    },
    {
      "inputs": [
        {
          "internalType": "address",
          "name": "_founder",
          "type": "address"
        },
        {
          "internalType": "uint256",
          "name": "_vestId",
          "type": "uint256"
        },
        {
          "internalType": "address",
          "name": "_investor",
          "type": "address"
        }
      ],
      "name": "currentEscrowBalanceOfInvestor",
      "outputs": [
        {
          "internalType": "uint256",
          "name": "",
          "type": "uint256"
        }
      ],
      "stateMutability": "view",
      "type": "function"
    },
    {
      "inputs": [
        {
          "internalType": "uint256",
          "name": "_tgeFund",
          "type": "uint256"
        },
        {
          "components": [
            {
              "internalType": "address",
              "name": "founder",
              "type": "address"
            },
            {
              "internalType": "address",
              "name": "founderSMAddress",
              "type": "address"
            },
            {
              "internalType": "address",
              "name": "founderCoinAddress",
              "type": "address"
            }
          ],
          "internalType": "struct Vesting.founderSetup",
          "name": "_f",
          "type": "tuple"
        },
        {
          "internalType": "bytes32",
          "name": "_symbol",
          "type": "bytes32"
        },
        {
          "internalType": "uint256",
          "name": "_vestId",
          "type": "uint256"
        },
        {
          "internalType": "uint256",
          "name": "_amount",
          "type": "uint256"
        },
        {
          "internalType": "address",
          "name": "_investor",
          "type": "address"
        },
        {
          "internalType": "uint256",
          "name": "_tgeDate",
          "type": "uint256"
        },
        {
          "internalType": "uint256",
          "name": "_vestingStartDate",
          "type": "uint256"
        },
        {
          "internalType": "uint256",
          "name": "_vestingMonths",
          "type": "uint256"
        },
        {
          "internalType": "uint256",
          "name": "_vestingMode",
          "type": "uint256"
        }
      ],
      "name": "depositFounderLinearTokens",
      "outputs": [],
      "stateMutability": "nonpayable",
      "type": "function"
    },
    {
      "inputs": [
        {
          "components": [
            {
              "internalType": "address",
              "name": "_founder",
              "type": "address"
            },
            {
              "internalType": "address",
              "name": "_founSM",
              "type": "address"
            },
            {
              "internalType": "address",
              "name": "_founderCoinAddress",
              "type": "address"
            }
          ],
          "internalType": "struct Vesting.forFounder",
          "name": "_f",
          "type": "tuple"
        },
        {
          "internalType": "bytes32",
          "name": "_symbol",
          "type": "bytes32"
        },
        {
          "internalType": "uint256",
          "name": "_vestId",
          "type": "uint256"
        },
        {
          "internalType": "uint256",
          "name": "_tgeDate",
          "type": "uint256"
        },
        {
          "internalType": "uint256",
          "name": "_vestingStartDate",
          "type": "uint256"
        },
        {
          "internalType": "uint256",
          "name": "_vestingMonths",
          "type": "uint256"
        },
        {
          "components": [
            {
              "internalType": "address",
              "name": "_investor",
              "type": "address"
            },
            {
              "internalType": "uint256",
              "name": "_tokens",
              "type": "uint256"
            },
            {
              "internalType": "uint256",
              "name": "_tgeFund",
              "type": "uint256"
            }
          ],
          "internalType": "struct Vesting.investors[]",
          "name": "_investors",
          "type": "tuple[]"
        },
        {
          "internalType": "uint256",
          "name": "_vestingMode",
          "type": "uint256"
        }
      ],
      "name": "depositFounderLinearTokensToInvestors",
      "outputs": [],
      "stateMutability": "nonpayable",
      "type": "function"
    },
    {
      "inputs": [
        {
          "internalType": "address",
          "name": "_founder",
          "type": "address"
        },
        {
          "internalType": "address",
          "name": "_founderCoinAddress",
          "type": "address"
        },
        {
          "internalType": "address",
          "name": "_founderSmartContractAd",
          "type": "address"
        },
        {
          "internalType": "bytes32",
          "name": "_symbol",
          "type": "bytes32"
        },
        {
          "internalType": "uint256",
          "name": "_vestId",
          "type": "uint256"
        },
        {
          "internalType": "uint256",
          "name": "_amount",
          "type": "uint256"
        },
        {
          "internalType": "address",
          "name": "_investor",
          "type": "address"
        },
        {
          "internalType": "uint256",
          "name": "_tgeDate",
          "type": "uint256"
        },
        {
          "internalType": "uint256",
          "name": "_tgeFund",
          "type": "uint256"
        }
      ],
      "name": "depositFounderNonLinearTokens",
      "outputs": [],
      "stateMutability": "nonpayable",
      "type": "function"
    },
    {
      "inputs": [
        {
          "internalType": "uint256",
          "name": "_vestId",
          "type": "uint256"
        },
        {
          "internalType": "uint256",
          "name": "_index",
          "type": "uint256"
        },
        {
          "internalType": "address",
          "name": "_investor",
          "type": "address"
        }
      ],
      "name": "investorInstallmentFund",
      "outputs": [
        {
          "internalType": "uint256",
          "name": "",
          "type": "uint256"
        },
        {
          "internalType": "uint256",
          "name": "",
          "type": "uint256"
        }
      ],
      "stateMutability": "view",
      "type": "function"
    },
    {
      "inputs": [
        {
          "internalType": "address",
          "name": "_founder",
          "type": "address"
        },
        {
          "internalType": "uint256",
          "name": "_vestId",
          "type": "uint256"
        },
        {
          "internalType": "address",
          "name": "_investor",
          "type": "address"
        }
      ],
      "name": "investorTGEFund",
      "outputs": [
        {
          "internalType": "uint256",
          "name": "",
          "type": "uint256"
        }
      ],
      "stateMutability": "view",
      "type": "function"
    },
    {
      "inputs": [
        {
          "internalType": "address",
          "name": "_founder",
          "type": "address"
        },
        {
          "internalType": "address",
          "name": "_investor",
          "type": "address"
        },
        {
          "internalType": "uint256",
          "name": "_vestId",
          "type": "uint256"
        }
      ],
      "name": "investorUnlockedFund",
      "outputs": [
        {
          "internalType": "uint256",
          "name": "",
          "type": "uint256"
        }
      ],
      "stateMutability": "view",
      "type": "function"
    },
    {
      "inputs": [
        {
          "internalType": "address",
          "name": "_investor",
          "type": "address"
        },
        {
          "internalType": "uint256",
          "name": "_vestId",
          "type": "uint256"
        }
      ],
      "name": "investorWithdrawnFund",
      "outputs": [
        {
          "internalType": "uint256",
          "name": "",
          "type": "uint256"
        }
      ],
      "stateMutability": "view",
      "type": "function"
    },
    {
      "inputs": [],
      "name": "owner",
      "outputs": [
        {
          "internalType": "address",
          "name": "",
          "type": "address"
        }
      ],
      "stateMutability": "view",
      "type": "function"
    },
    {
      "inputs": [],
      "name": "proxiableUUID",
      "outputs": [
        {
          "internalType": "bytes32",
          "name": "",
          "type": "bytes32"
        }
      ],
      "stateMutability": "view",
      "type": "function"
    },
    {
      "inputs": [],
      "name": "renounceOwnership",
      "outputs": [],
      "stateMutability": "nonpayable",
      "type": "function"
    },
    {
      "inputs": [
        {
          "internalType": "address",
          "name": "_founder",
          "type": "address"
        },
        {
          "internalType": "address",
          "name": "_investor",
          "type": "address"
        },
        {
          "internalType": "uint256",
          "name": "_vestId",
          "type": "uint256"
        }
      ],
      "name": "returnRemainingFundExcludingTGE",
      "outputs": [
        {
          "internalType": "uint256",
          "name": "",
          "type": "uint256"
        }
      ],
      "stateMutability": "view",
      "type": "function"
    },
    {
      "inputs": [
        {
          "internalType": "address",
          "name": "_founder",
          "type": "address"
        },
        {
          "internalType": "address",
          "name": "_founderSmartContractAd",
          "type": "address"
        },
        {
          "internalType": "uint256",
          "name": "_vestId",
          "type": "uint256"
        },
        {
          "internalType": "address",
          "name": "_investor",
          "type": "address"
        },
        {
          "components": [
            {
              "internalType": "uint256",
              "name": "_dateDue",
              "type": "uint256"
            },
            {
              "internalType": "uint256",
              "name": "_fundDue",
              "type": "uint256"
            }
          ],
          "internalType": "struct Vesting.due[]",
          "name": "_dues",
          "type": "tuple[]"
        }
      ],
      "name": "setNonLinearInstallments",
      "outputs": [],
      "stateMutability": "nonpayable",
      "type": "function"
    },
    {
      "inputs": [
        {
          "internalType": "address",
          "name": "newOwner",
          "type": "address"
        }
      ],
      "name": "transferOwnership",
      "outputs": [],
      "stateMutability": "nonpayable",
      "type": "function"
    },
    {
      "inputs": [
        {
          "internalType": "address",
          "name": "newImplementation",
          "type": "address"
        }
      ],
      "name": "upgradeTo",
      "outputs": [],
      "stateMutability": "nonpayable",
      "type": "function"
    },
    {
      "inputs": [
        {
          "internalType": "address",
          "name": "newImplementation",
          "type": "address"
        },
        {
          "internalType": "bytes",
          "name": "data",
          "type": "bytes"
        }
      ],
      "name": "upgradeToAndCall",
      "outputs": [],
      "stateMutability": "payable",
      "type": "function"
    },
    {
      "inputs": [
        {
          "internalType": "address",
          "name": "_founder",
          "type": "address"
        },
        {
          "internalType": "address",
          "name": "_investor",
          "type": "address"
        },
        {
          "internalType": "uint256",
          "name": "_vestId",
          "type": "uint256"
        },
        {
          "internalType": "bytes32",
          "name": "_symbol",
          "type": "bytes32"
        }
      ],
      "name": "withdrawBatch",
      "outputs": [],
      "stateMutability": "nonpayable",
      "type": "function"
    },
    {
      "inputs": [
        {
          "internalType": "address",
          "name": "_investor",
          "type": "address"
        },
        {
          "internalType": "address",
          "name": "_founder",
          "type": "address"
        },
        {
          "internalType": "uint256",
          "name": "_vestId",
          "type": "uint256"
        },
        {
          "internalType": "uint256",
          "name": "_index",
          "type": "uint256"
        },
        {
          "internalType": "bytes32",
          "name": "_symbol",
          "type": "bytes32"
        }
      ],
      "name": "withdrawInstallmentAmount",
      "outputs": [],
      "stateMutability": "nonpayable",
      "type": "function"
    },
    {
      "inputs": [
        {
          "internalType": "address",
          "name": "_investor",
          "type": "address"
        },
        {
          "internalType": "address",
          "name": "_founder",
          "type": "address"
        },
        {
          "internalType": "uint256",
          "name": "_vestId",
          "type": "uint256"
        },
        {
          "internalType": "bytes32",
          "name": "_symbol",
          "type": "bytes32"
        }
      ],
      "name": "withdrawTGEFund",
      "outputs": [],
      "stateMutability": "nonpayable",
      "type": "function"
    }
  ],
  "bytecode": "0x60a06040523060805234801561001457600080fd5b5060805161335e61004c600039600081816106e40152818161072401528181610a0301528181610a430152610ad6015261335e6000f3fe6080604052600436106101145760003560e01c8063772dbfc7116100a0578063ecefa3bc11610064578063ecefa3bc14610342578063f2fde38b14610362578063f3e869e814610382578063f9eac65b146103d4578063fa7bbe8f1461042657600080fd5b8063772dbfc71461024d5780638da5cb5b1461026d578063cc6c0a2214610295578063d1cd8970146102b5578063dbe1931e146102d557600080fd5b80634f1ef286116100e75780634f1ef286146101d057806352d1902d146101e357806360624e3d146101f8578063715018a61461021857806372b43e031461022d57600080fd5b80630793a56c1461011957806324824d881461013b5780633659cfe61461019057806349839260146101b0575b600080fd5b34801561012557600080fd5b506101396101343660046129a1565b610446565b005b34801561014757600080fd5b5061017d6101563660046129e3565b600090815260cd602090815260408083206001600160a01b03949094168352929052205490565b6040519081526020015b60405180910390f35b34801561019c57600080fd5b506101396101ab366004612a0d565b6106d9565b3480156101bc57600080fd5b506101396101cb366004612a28565b6107b9565b6101396101de366004612b40565b6109f8565b3480156101ef57600080fd5b5061017d610ac9565b34801561020457600080fd5b50610139610213366004612c0a565b610b7c565b34801561022457600080fd5b50610139610dff565b34801561023957600080fd5b506101396102483660046129a1565b610e13565b34801561025957600080fd5b50610139610268366004612d71565b6111f7565b34801561027957600080fd5b506097546040516001600160a01b039091168152602001610187565b3480156102a157600080fd5b506101396102b0366004612df6565b611916565b3480156102c157600080fd5b5061017d6102d0366004612e43565b611bed565b3480156102e157600080fd5b5061032d6102f0366004612e7f565b600092835260cb602090815260408085206001600160a01b0393909316855291815281842092845260028301815281842054929052909120549091565b60408051928352602083019190915201610187565b34801561034e57600080fd5b5061013961035d366004612eb4565b611c26565b34801561036e57600080fd5b5061013961037d366004612a0d565b612340565b34801561038e57600080fd5b5061017d61039d366004612fd3565b6001600160a01b03928316600090815260ca6020908152604080832094835260019094018152838220929094168152925290205490565b3480156103e057600080fd5b5061017d6103ef366004612fd3565b6001600160a01b03928316600090815260ca6020908152604080832094835260069094018152838220929094168152925290205490565b34801561043257600080fd5b5061017d610441366004612e43565b6123b6565b336001600160a01b038516146104775760405162461bcd60e51b815260040161046e90613006565b60405180910390fd5b6001600160a01b03808416600090815260ca60209081526040808320868452600201825280832093881683529290522054421061065957600081815260c960209081526040808320546001600160a01b03878116855260ca8452828520878652600601845282852089821686529093529281902054905163a9059cbb60e01b8152336004820152602481019190915291169063a9059cbb90604401602060405180830381600087803b15801561052c57600080fd5b505af1158015610540573d6000803e3d6000fd5b505050506040513d601f19601f820116820180604052508101906105649190613051565b506001600160a01b03808416600090815260ca60209081526040808320868452600681018352818420948916808552948352818420548785526001909101835281842094845293909152812080549091906105c0908490613089565b90915550506001600160a01b03808416600090815260ca6020908152604080832086845260060182528083209388168084529382528083205486845260cd8352818420948452939091528120805490919061061c9084906130a0565b90915550506001600160a01b03808416600090815260ca6020908152604080832086845260060182528083209388168352929052908120556106d3565b60405162461bcd60e51b815260206004820152604360248201527f546865207472616e73616374696f6e20686173206661696c656420626563617560448201527f736520746865205447452074696d6520686173206e6f742072656163686564206064820152621e595d60ea1b608482015260a40161046e565b50505050565b306001600160a01b037f00000000000000000000000000000000000000000000000000000000000000001614156107225760405162461bcd60e51b815260040161046e906130b8565b7f00000000000000000000000000000000000000000000000000000000000000006001600160a01b031661076b6000805160206132e2833981519152546001600160a01b031690565b6001600160a01b0316146107915760405162461bcd60e51b815260040161046e90613104565b61079a81612524565b604080516000808252602082019092526107b69183919061252c565b50565b336001600160a01b038a16146107e15760405162461bcd60e51b815260040161046e90613150565b600086815260c9602052604080822080546001600160a01b0319166001600160a01b038c81169190911790915590516360f0712b60e11b81528b8216600482015289929183169063c1e0e2569060240160206040518083038186803b15801561084957600080fd5b505afa15801561085d573d6000803e3d6000fd5b505050506040513d601f19601f820116820180604052508101906108819190613051565b1515600114156109d357506001600160a01b038a8116600090815260ca602090815260408083208a84528083528184209489168085529483528184208a90558a845260018101835281842085855283528184208a90558a845260028101835281842085855283528184208890558a84526006018252808320938352929052208290558461090e8382613089565b6001600160a01b038c8116600081815260ca602090815260408083208d845260070182528083208b861684528252808320959095558c825260c990528390205492516323b872dd60e01b81526004810191909152306024820152604481018990529116906323b872dd90606401602060405180830381600087803b15801561099557600080fd5b505af11580156109a9573d6000803e3d6000fd5b505050506040513d601f19601f820116820180604052508101906109cd9190613051565b506109eb565b60405162461bcd60e51b815260040161046e9061319a565b5050505050505050505050565b306001600160a01b037f0000000000000000000000000000000000000000000000000000000000000000161415610a415760405162461bcd60e51b815260040161046e906130b8565b7f00000000000000000000000000000000000000000000000000000000000000006001600160a01b0316610a8a6000805160206132e2833981519152546001600160a01b031690565b6001600160a01b031614610ab05760405162461bcd60e51b815260040161046e90613104565b610ab982612524565b610ac58282600161252c565b5050565b6000306001600160a01b037f00000000000000000000000000000000000000000000000000000000000000001614610b695760405162461bcd60e51b815260206004820152603860248201527f555550535570677261646561626c653a206d757374206e6f742062652063616c60448201527f6c6564207468726f7567682064656c656761746563616c6c0000000000000000606482015260840161046e565b506000805160206132e283398151915290565b336001600160a01b03861614610ba45760405162461bcd60e51b815260040161046e90613150565b6040516360f0712b60e11b81526001600160a01b03868116600483015285919082169063c1e0e2569060240160206040518083038186803b158015610be857600080fd5b505afa158015610bfc573d6000803e3d6000fd5b505050506040513d601f19601f82011682018060405250810190610c209190613051565b1515600114156109d3576000805b8351811015610dcf57838181518110610c4957610c496131db565b60209081029190910181015151600088815260cb835260408082206001600160a01b038a1683529093529182209091610c838460016130a0565b8152602080820192909252604090810160009081209390935588835260cb82528083206001600160a01b038916845290915281206001908101908290610cca9085906130a0565b815260200190815260200160002060006101000a81548160ff021916908315150217905550612710848281518110610d0457610d046131db565b602002602001015160200151670de0b6b3a7640000610d2391906131f1565b610d2d9190613210565b600087815260cb602090815260408083206001600160a01b038a168452909152812060020190610d5e8460016130a0565b8152602080820192909252604090810160009081209390935588835260cb82528083206001600160a01b0389168452909152812060020190610da18360016130a0565b81526020019081526020016000205482610dbb91906130a0565b915080610dc781613232565b915050610c2e565b50508151600085815260cc602090815260408083206001600160a01b03881684529091529020555b505050505050565b610e076126ab565b610e116000612705565b565b336001600160a01b03841614610e9f5760405162461bcd60e51b815260206004820152604560248201527f54686520636f6e6e65637465642077616c6c6574206973206e6f7420696e766560448201527f73746f722077616c6c65742c20706c6561736520636865636b20746865206164606482015264647265737360d81b608482015260a40161046e565b600082815260cc602090815260408083206001600160a01b0387168452909152902054156106d357600060015b600084815260cc602090815260408083206001600160a01b03891684529091529020548111610ff057600084815260cb602090815260408083206001600160a01b038916845282528083208484529091529020544210801590610f635750600084815260cb602090815260408083206001600160a01b0389168452825280832084845260019081019092529091205460ff16151514155b15610fde57600084815260cb602090815260408083206001600160a01b03891684528252808320848452600201909152902054610fa090836130a0565b600085815260cb602090815260408083206001600160a01b038a16845282528083208584526001908101909252909120805460ff1916909117905591505b80610fe881613232565b915050610ecc565b506001600160a01b03808616600090815260ca60209081526040808320878452600701825280832093881683529290529081208054839290611033908490613089565b90915550506001600160a01b03808616600090815260ca6020908152604080832087845260020182528083209388168352929052205442106110e0576001600160a01b03808616600090815260ca602090815260408083208784526006018252808320938816835292905220546110aa90826130a0565b6001600160a01b03808716600090815260ca60209081526040808320888452600601825280832093891683529290529081205590505b600082815260c960205260409081902054905163a9059cbb60e01b8152336004820152602481018390526001600160a01b039091169063a9059cbb90604401602060405180830381600087803b15801561113957600080fd5b505af115801561114d573d6000803e3d6000fd5b505050506040513d601f19601f820116820180604052508101906111719190613051565b506001600160a01b03808616600090815260ca602090815260408083208784526001018252808320938816835292905290812080548392906111b4908490613089565b9091555050600083815260cd602090815260408083206001600160a01b0388168452909152812080548392906111eb9084906130a0565b90915550505050505050565b88516001600160a01b031633146112205760405162461bcd60e51b815260040161046e90613150565b6020898101516040808c015160008c815260c990945290832080546001600160a01b0319166001600160a01b03909216919091179055908361126157600193505b8a516040516360f0712b60e11b81526001600160a01b0391821660048201529083169063c1e0e2569060240160206040518083038186803b1580156112a557600080fd5b505afa1580156112b9573d6000803e3d6000fd5b505050506040513d601f19601f820116820180604052508101906112dd9190613051565b1515600114156109d3578760ca60008d600001516001600160a01b03166001600160a01b0316815260200190815260200160002060000160008b81526020019081526020016000206000896001600160a01b03166001600160a01b031681526020019081526020016000208190555060ca60008c600001516001600160a01b03166001600160a01b0316815260200190815260200160002060000160008a81526020019081526020016000206000886001600160a01b03166001600160a01b031681526020019081526020016000205490508760ca60008d600001516001600160a01b03166001600160a01b0316815260200190815260200160002060010160008b81526020019081526020016000206000896001600160a01b03166001600160a01b03168152602001908152602001600020819055508560ca60008d600001516001600160a01b03166001600160a01b0316815260200190815260200160002060020160008b81526020019081526020016000206000896001600160a01b03166001600160a01b03168152602001908152602001600020819055508460ca60008d600001516001600160a01b03166001600160a01b0316815260200190815260200160002060040160008b81526020019081526020016000206000896001600160a01b03166001600160a01b03168152602001908152602001600020819055508360ca60008d600001516001600160a01b03166001600160a01b0316815260200190815260200160002060050160008b81526020019081526020016000206000896001600160a01b03166001600160a01b03168152602001908152602001600020819055508b60ca60008d600001516001600160a01b03166001600160a01b0316815260200190815260200160002060060160008b81526020019081526020016000206000896001600160a01b03166001600160a01b031681526020019081526020016000208190555060ca60008c600001516001600160a01b03166001600160a01b0316815260200190815260200160002060060160008a81526020019081526020016000206000886001600160a01b03166001600160a01b0316815260200190815260200160002054886116149190613089565b60ca60008d600001516001600160a01b03166001600160a01b0316815260200190815260200160002060070160008b81526020019081526020016000206000896001600160a01b03166001600160a01b03168152602001908152602001600020819055508360ca60008d600001516001600160a01b03166001600160a01b0316815260200190815260200160002060070160008b81526020019081526020016000206000896001600160a01b03166001600160a01b03168152602001908152602001600020546116e49190613210565b8b516001600160a01b03908116600090815260ca602090815260408083208e845260080182528083208c851684528252808320949094558d825260c99052829020548d5192516323b872dd60e01b81529282166004840152306024840152604483018b905216906323b872dd90606401602060405180830381600087803b15801561176e57600080fd5b505af1158015611782573d6000803e3d6000fd5b505050506040513d601f19601f820116820180604052508101906117a69190613051565b5060005b848110156118e2576117bc84826131f1565b6117c990620151806131f1565b6117d390876130a0565b60008b815260cb602090815260408083206001600160a01b038d1684529091528120906118018460016130a0565b815260208082019290925260409081016000908120939093558c835260cb82528083206001600160a01b038c168452909152812060019081019082906118489085906130a0565b815260208082019290925260409081016000908120805460ff1916941515949094179093558e516001600160a01b03908116845260ca83528184208e85526008018352818420908c16808552908352818420548e855260cb84528285209185529252822090916002909101906118bf8460016130a0565b8152602081019190915260400160002055806118da81613232565b9150506117aa565b50600089815260cc602090815260408083206001600160a01b038b1684529091529020849055505050505050505050505050565b336001600160a01b0386161461193e5760405162461bcd60e51b815260040161046e90613006565b600083815260cb602090815260408083206001600160a01b038916845282528083208584529091528120544210611ba557600084815260cb602090815260408083206001600160a01b038a168452825280832086845260019081019092529091205460ff16151514611b695750600083815260cb602090815260408083206001600160a01b0389811680865291845282852087865260020184528285205486865260c99094529382902054915163a9059cbb60e01b81526004810191909152602481018390529192169063a9059cbb90604401602060405180830381600087803b158015611a2b57600080fd5b505af1158015611a3f573d6000803e3d6000fd5b505050506040513d601f19601f82011682018060405250810190611a639190613051565b506001600160a01b03808616600090815260ca602090815260408083208884526007018252808320938a1683529290529081208054839290611aa6908490613089565b90915550506001600160a01b03808616600090815260ca602090815260408083208884526001018252808320938a1683529290529081208054839290611aed908490613089565b9091555050600084815260cd602090815260408083206001600160a01b038a16845290915281208054839290611b249084906130a0565b9091555050600084815260cb602090815260408083206001600160a01b038a16845282528083208684526001908101909252909120805460ff19169091179055610df7565b60405162461bcd60e51b815260206004820152601160248201527020b63932b0b23c902bb4ba34323930bbb760791b604482015260640161046e565b60405162461bcd60e51b815260206004820152601f60248201527f496e7374616c6c6d656e74206973206e6f7420756e6c6f636b65642079657400604482015260640161046e565b6001600160a01b03808416600090815260ca602090815260408083208584526007018252808320938616835292905220545b9392505050565b87516001600160a01b03163314611c4f5760405162461bcd60e51b815260040161046e90613150565b602088015188516040516360f0712b60e11b81526001600160a01b0391821660048201529082169063c1e0e2569060240160206040518083038186803b158015611c9857600080fd5b505afa158015611cac573d6000803e3d6000fd5b505050506040513d601f19601f82011682018060405250810190611cd09190613051565b1515600114611cf15760405162461bcd60e51b815260040161046e9061319a565b60408981015160008a815260c960205291822080546001600160a01b0319166001600160a01b0390921691909117905584611d2b57600194505b60005b84518110156109eb576000858281518110611d4b57611d4b6131db565b60200260200101516000015190506000612710878481518110611d7057611d706131db565b602002602001015160200151670de0b6b3a7640000611d8f91906131f1565b611d999190613210565b60008d815260c9602052604090205488519192506001600160a01b0316906323b872dd9033908a9087908110611dd157611dd16131db565b6020026020010151600001516127108b8881518110611df257611df26131db565b602002602001015160200151670de0b6b3a7640000611e1191906131f1565b611e1b9190613210565b6040516001600160e01b031960e086901b1681526001600160a01b0393841660048201529290911660248301526044820152606401602060405180830381600087803b158015611e6a57600080fd5b505af1158015611e7e573d6000803e3d6000fd5b505050506040513d601f19601f82011682018060405250810190611ea29190613051565b50611ead81856130a0565b93508060ca6000336001600160a01b03166001600160a01b0316815260200190815260200160002060000160008d81526020019081526020016000206000846001600160a01b03166001600160a01b03168152602001908152602001600020819055508060ca6000336001600160a01b03166001600160a01b0316815260200190815260200160002060010160008d81526020019081526020016000206000846001600160a01b03166001600160a01b03168152602001908152602001600020819055508960ca6000336001600160a01b03166001600160a01b0316815260200190815260200160002060020160008d81526020019081526020016000206000846001600160a01b03166001600160a01b03168152602001908152602001600020819055508860ca6000336001600160a01b03166001600160a01b0316815260200190815260200160002060040160008d81526020019081526020016000206000846001600160a01b03166001600160a01b03168152602001908152602001600020819055508760ca6000336001600160a01b03166001600160a01b0316815260200190815260200160002060050160008d81526020019081526020016000206000846001600160a01b03166001600160a01b03168152602001908152602001600020819055506127108784815181106120a9576120a96131db565b602002602001015160400151670de0b6b3a76400006120c891906131f1565b6120d29190613210565b33600090815260ca602090815260408083208f845260060182528083206001600160a01b0387168452909152902081905561210d9082613089565b33600090815260ca602090815260408083208f845260070182528083206001600160a01b03871684529091529020819055612149908990613210565b33600090815260ca602090815260408083208f845260080182528083206001600160a01b03871684529091528120919091555b888110156123075761218e87826131f1565b61219b90620151806131f1565b6121a5908b6130a0565b60008d815260cb602090815260408083206001600160a01b03881684529091528120906121d38460016130a0565b815260208082019290925260409081016000908120939093558e835260cb82528083206001600160a01b03871684529091528120600190810190829061221a9085906130a0565b815260200190815260200160002060006101000a81548160ff02191690831515021790555060ca6000336001600160a01b03166001600160a01b0316815260200190815260200160002060080160008d81526020019081526020016000206000846001600160a01b03166001600160a01b031681526020019081526020016000205460cb60008e81526020019081526020016000206000856001600160a01b03166001600160a01b0316815260200190815260200160002060020160008360016122e491906130a0565b8152602081019190915260400160002055806122ff81613232565b91505061217c565b505060008a815260cc602090815260408083206001600160a01b039094168352929052208690558061233881613232565b915050611d2e565b6123486126ab565b6001600160a01b0381166123ad5760405162461bcd60e51b815260206004820152602660248201527f4f776e61626c653a206e6577206f776e657220697320746865207a65726f206160448201526564647265737360d01b606482015260840161046e565b6107b681612705565b6001600160a01b03808416600090815260ca6020908152604080832085845260020182528083209386168352929052908120548190421061242f576001600160a01b03808616600090815260ca6020908152604080832087845260060182528083209388168352929052205461242c90826130a0565b90505b60015b600084815260cc602090815260408083206001600160a01b0389168452909152902054811161251b57600084815260cb602090815260408083206001600160a01b0389168452825280832084845290915290205442108015906124c95750600084815260cb602090815260408083206001600160a01b0389168452825280832084845260019081019092529091205460ff16151514155b1561250957600084815260cb602090815260408083206001600160a01b0389168452825280832084845260020190915290205461250690836130a0565b91505b8061251381613232565b915050612432565b50949350505050565b6107b66126ab565b7f4910fdfa16fed3260ed0e7147f7cc6da11a60208b5b9406d12a635614ffd91435460ff16156125645761255f83612757565b505050565b826001600160a01b03166352d1902d6040518163ffffffff1660e01b815260040160206040518083038186803b15801561259d57600080fd5b505afa9250505080156125cd575060408051601f3d908101601f191682019092526125ca9181019061324d565b60015b6126305760405162461bcd60e51b815260206004820152602e60248201527f45524331393637557067726164653a206e657720696d706c656d656e7461746960448201526d6f6e206973206e6f74205555505360901b606482015260840161046e565b6000805160206132e2833981519152811461269f5760405162461bcd60e51b815260206004820152602960248201527f45524331393637557067726164653a20756e737570706f727465642070726f786044820152681a58589b195555525160ba1b606482015260840161046e565b5061255f8383836127f3565b6097546001600160a01b03163314610e115760405162461bcd60e51b815260206004820181905260248201527f4f776e61626c653a2063616c6c6572206973206e6f7420746865206f776e6572604482015260640161046e565b609780546001600160a01b038381166001600160a01b0319831681179093556040519116919082907f8be0079c531659141344cd1fd0a4f28419497f9722a3daafe3b4186f6b6457e090600090a35050565b6001600160a01b0381163b6127c45760405162461bcd60e51b815260206004820152602d60248201527f455243313936373a206e657720696d706c656d656e746174696f6e206973206e60448201526c1bdd08184818dbdb9d1c9858dd609a1b606482015260840161046e565b6000805160206132e283398151915280546001600160a01b0319166001600160a01b0392909216919091179055565b6127fc83612818565b6000825111806128095750805b1561255f576106d38383612858565b61282181612757565b6040516001600160a01b038216907fbc7cd75a20ee27fd9adebab32041f755214dbc6bffa90cc0225b39da2e5c2d3b90600090a250565b60606001600160a01b0383163b6128c05760405162461bcd60e51b815260206004820152602660248201527f416464726573733a2064656c65676174652063616c6c20746f206e6f6e2d636f6044820152651b9d1c9858dd60d21b606482015260840161046e565b600080846001600160a01b0316846040516128db9190613292565b600060405180830381855af49150503d8060008114612916576040519150601f19603f3d011682016040523d82523d6000602084013e61291b565b606091505b509150915061294382826040518060600160405280602781526020016133026027913961294c565b95945050505050565b6060831561295b575081611c1f565b82511561296b5782518084602001fd5b8160405162461bcd60e51b815260040161046e91906132ae565b80356001600160a01b038116811461299c57600080fd5b919050565b600080600080608085870312156129b757600080fd5b6129c085612985565b93506129ce60208601612985565b93969395505050506040820135916060013590565b600080604083850312156129f657600080fd5b6129ff83612985565b946020939093013593505050565b600060208284031215612a1f57600080fd5b611c1f82612985565b60008060008060008060008060006101208a8c031215612a4757600080fd5b612a508a612985565b9850612a5e60208b01612985565b9750612a6c60408b01612985565b965060608a0135955060808a0135945060a08a01359350612a8f60c08b01612985565b925060e08a013591506101008a013590509295985092959850929598565b634e487b7160e01b600052604160045260246000fd5b6040805190810167ffffffffffffffff81118282101715612ae657612ae6612aad565b60405290565b6040516060810167ffffffffffffffff81118282101715612ae657612ae6612aad565b604051601f8201601f1916810167ffffffffffffffff81118282101715612b3857612b38612aad565b604052919050565b60008060408385031215612b5357600080fd5b612b5c83612985565b915060208084013567ffffffffffffffff80821115612b7a57600080fd5b818601915086601f830112612b8e57600080fd5b813581811115612ba057612ba0612aad565b612bb2601f8201601f19168501612b0f565b91508082528784828501011115612bc857600080fd5b80848401858401376000848284010152508093505050509250929050565b600067ffffffffffffffff821115612c0057612c00612aad565b5060051b60200190565b600080600080600060a08688031215612c2257600080fd5b612c2b86612985565b94506020612c3a818801612985565b94506040808801359450612c5060608901612985565b9350608088013567ffffffffffffffff811115612c6c57600080fd5b8801601f81018a13612c7d57600080fd5b8035612c90612c8b82612be6565b612b0f565b81815260069190911b8201840190848101908c831115612caf57600080fd5b928501925b82841015612cef5784848e031215612ccc5760008081fd5b612cd4612ac3565b84358152868501358782015282529284019290850190612cb4565b8096505050505050509295509295909350565b600060608284031215612d1457600080fd5b6040516060810181811067ffffffffffffffff82111715612d3757612d37612aad565b604052905080612d4683612985565b8152612d5460208401612985565b6020820152612d6560408401612985565b60408201525092915050565b6000806000806000806000806000806101808b8d031215612d9157600080fd5b8a359950612da28c60208d01612d02565b985060808b0135975060a08b0135965060c08b01359550612dc560e08c01612985565b94506101008b013593506101208b013592506101408b013591506101608b013590509295989b9194979a5092959850565b600080600080600060a08688031215612e0e57600080fd5b612e1786612985565b9450612e2560208701612985565b94979496505050506040830135926060810135926080909101359150565b600080600060608486031215612e5857600080fd5b612e6184612985565b9250612e6f60208501612985565b9150604084013590509250925092565b600080600060608486031215612e9457600080fd5b8335925060208401359150612eab60408501612985565b90509250925092565b600080600080600080600080610140898b031215612ed157600080fd5b612edb8a8a612d02565b9750606089013596506080890135955060a0890135945060c0890135935060e0890135925061010089013567ffffffffffffffff811115612f1b57600080fd5b8901601f81018b13612f2c57600080fd5b8035612f3a612c8b82612be6565b8082825260208201915060206060840285010192508d831115612f5c57600080fd5b6020840193505b82841015612fb7576060848f031215612f7b57600080fd5b612f83612aec565b612f8c85612985565b8152602085013560208201526040850135604082015280835250602082019150606084019350612f63565b8095505050505061012089013590509295985092959890939650565b600080600060608486031215612fe857600080fd5b612ff184612985565b925060208401359150612eab60408501612985565b6020808252602b908201527f54686520636f6e6e65637465642077616c6c6574206973206e6f7420696e766560408201526a1cdd1bdc881dd85b1b195d60aa1b606082015260800190565b60006020828403121561306357600080fd5b81518015158114611c1f57600080fd5b634e487b7160e01b600052601160045260246000fd5b60008282101561309b5761309b613073565b500390565b600082198211156130b3576130b3613073565b500190565b6020808252602c908201527f46756e6374696f6e206d7573742062652063616c6c6564207468726f7567682060408201526b19195b1959d85d1958d85b1b60a21b606082015260800190565b6020808252602c908201527f46756e6374696f6e206d7573742062652063616c6c6564207468726f7567682060408201526b6163746976652070726f787960a01b606082015260800190565b6020808252602a908201527f54686520636f6e6e65637465642077616c6c6574206973206e6f7420666f756e60408201526919195c881dd85b1b195d60b21b606082015260800190565b60208082526021908201527f54686520666f756e646572206973206e6f7420726567697374657265642079656040820152601d60fa1b606082015260800190565b634e487b7160e01b600052603260045260246000fd5b600081600019048311821515161561320b5761320b613073565b500290565b60008261322d57634e487b7160e01b600052601260045260246000fd5b500490565b600060001982141561324657613246613073565b5060010190565b60006020828403121561325f57600080fd5b5051919050565b60005b83811015613281578181015183820152602001613269565b838111156106d35750506000910152565b600082516132a4818460208701613266565b9190910192915050565b60208152600082518060208401526132cd816040850160208701613266565b601f01601f1916919091016040019291505056fe360894a13ba1a3210667c828492db98dca3e2076cc3735a920a3ca505d382bbc416464726573733a206c6f772d6c6576656c2064656c65676174652063616c6c206661696c6564a2646970667358221220df6466f03fcb0fefa3910ab0d42149c6bf7cc2900d941a407361843c030f103464736f6c63430008090033",
  "linkReferences": {},
  "deployedLinkReferences": {}
}